{"abi":[{"type":"function","name":"HEALTH_FACTOR_LIQUIDATION_THRESHOLD","inputs":[],"outputs":[{"name":"","type":"uint256","internalType":"uint256"}],"stateMutability":"view"}],"bytecode":{"object":"0x608e610038600b82828239805160001a607314602b57634e487b7160e01b600052600060045260246000fd5b30600052607381538281f3fe730000000000000000000000000000000000000000301460806040526004361060335760003560e01c8063c3525c28146038575b600080fd5b6046670de0b6b3a764000081565b60405190815260200160405180910390f3fea2646970667358221220bd9638b1854af485c121c63c8807117b8a31515d33273c0a00bd546b995eb4b764736f6c63430008150033","linkReferences":{}},"methodIdentifiers":{"HEALTH_FACTOR_LIQUIDATION_THRESHOLD()":"c3525c28"},"id":11}