{"abi":[{"type":"function","name":"deposit","inputs":[{"name":"asset","type":"address","internalType":"address"},{"name":"amount","type":"uint256","internalType":"uint256"},{"name":"onBehalfOf","type":"address","internalType":"address"}],"outputs":[],"stateMutability":"nonpayable"},{"type":"function","name":"finalizeTransfer","inputs":[{"name":"asset","type":"address","internalType":"address"},{"name":"from","type":"address","internalType":"address"},{"name":"to","type":"address","internalType":"address"},{"name":"amount","type":"uint256","internalType":"uint256"},{"name":"fromBalanceBefore","type":"uint256","internalType":"uint256"},{"name":"toBalanceBefore","type":"uint256","internalType":"uint256"}],"outputs":[],"stateMutability":"nonpayable"},{"type":"function","name":"getReserveData","inputs":[{"name":"asset","type":"address","internalType":"address"}],"outputs":[{"name":"","type":"tuple","internalType":"struct DataTypes.ReserveData","components":[{"name":"configuration","type":"tuple","internalType":"struct DataTypes.ReserveConfigurationMap","components":[{"name":"data","type":"uint256","internalType":"uint256"}]},{"name":"liquidityIndex","type":"uint128","internalType":"uint128"},{"name":"currentLiquidityRate","type":"uint128","internalType":"uint128"},{"name":"variableBorrowIndex","type":"uint128","internalType":"uint128"},{"name":"currentVariableBorrowRate","type":"uint128","internalType":"uint128"},{"name":"currentStableBorrowRate","type":"uint128","internalType":"uint128"},{"name":"lastUpdateTimestamp","type":"uint40","internalType":"uint40"},{"name":"aTokenAddress","type":"address","internalType":"address"},{"name":"stableDebtTokenAddress","type":"address","internalType":"address"},{"name":"variableDebtTokenAddress","type":"address","internalType":"address"},{"name":"id","type":"uint8","internalType":"uint8"}]}],"stateMutability":"view"},{"type":"function","name":"getReserveNomalizedIncome","inputs":[{"name":"asset","type":"address","internalType":"address"}],"outputs":[{"name":"","type":"uint256","internalType":"uint256"}],"stateMutability":"view"},{"type":"function","name":"getReserveNomalizedVariableDebt","inputs":[{"name":"asset","type":"address","internalType":"address"}],"outputs":[{"name":"","type":"uint256","internalType":"uint256"}],"stateMutability":"view"},{"type":"function","name":"initReserve","inputs":[{"name":"asset","type":"address","internalType":"address"},{"name":"aToken","type":"address","internalType":"address"}],"outputs":[{"name":"","type":"bool","internalType":"bool"}],"stateMutability":"nonpayable"},{"type":"function","name":"paused","inputs":[],"outputs":[{"name":"","type":"bool","internalType":"bool"}],"stateMutability":"view"},{"type":"function","name":"withdraw","inputs":[{"name":"asset","type":"address","internalType":"address"},{"name":"amount","type":"uint256","internalType":"uint256"},{"name":"to","type":"address","internalType":"address"}],"outputs":[{"name":"","type":"uint256","internalType":"uint256"}],"stateMutability":"nonpayable"},{"type":"event","name":"Deposit","inputs":[{"name":"reserve","type":"address","indexed":true,"internalType":"address"},{"name":"user","type":"address","indexed":false,"internalType":"address"},{"name":"onBehalfOf","type":"address","indexed":true,"internalType":"address"},{"name":"amount","type":"uint256","indexed":false,"internalType":"uint256"}],"anonymous":false},{"type":"event","name":"Paused","inputs":[{"name":"account","type":"address","indexed":false,"internalType":"address"}],"anonymous":false},{"type":"event","name":"Unpaused","inputs":[{"name":"account","type":"address","indexed":false,"internalType":"address"}],"anonymous":false},{"type":"event","name":"Withdraw","inputs":[{"name":"reserve","type":"address","indexed":true,"internalType":"address"},{"name":"user","type":"address","indexed":true,"internalType":"address"},{"name":"to","type":"address","indexed":true,"internalType":"address"},{"name":"amount","type":"uint256","indexed":false,"internalType":"uint256"}],"anonymous":false},{"type":"error","name":"AddressEmptyCode","inputs":[{"name":"target","type":"address","internalType":"address"}]},{"type":"error","name":"AddressInsufficientBalance","inputs":[{"name":"account","type":"address","internalType":"address"}]},{"type":"error","name":"EnforcedPause","inputs":[]},{"type":"error","name":"ExpectedPause","inputs":[]},{"type":"error","name":"FailedInnerCall","inputs":[]},{"type":"error","name":"SafeERC20FailedOperation","inputs":[{"name":"token","type":"address","internalType":"address"}]}],"bytecode":{"object":"0x608060405234801561001057600080fd5b506001805460ff191690556111608061002a6000396000f3fe608060405234801561001057600080fd5b50600436106100885760003560e01c80636c3fbb801161005b5780636c3fbb8014610220578063c8b3e1fa14610233578063d5ed393314610246578063f45346dc1461025b57600080fd5b80630ff44c961461008d57806335ea6a75146100b35780635c975abb146101f657806369328dec1461020d575b600080fd5b6100a061009b366004610e61565b61026e565b6040519081526020015b60405180910390f35b6101e96100c1366004610e61565b604080516101808101825260006101608201818152825260208201819052918101829052606081018290526080810182905260a0810182905260c0810182905260e0810182905261010081018290526101208101829052610140810191909152506001600160a01b039081166000908152602081815260409182902082516101808101845281546101608201908152815260018201546001600160801b0380821694830194909452600160801b908190048416948201949094526002820154808416606083015284900483166080820152600382015492831660a08201529290910464ffffffffff1660c08301526004810154831660e08301526005810154831661010083015260060154918216610120820152600160a01b90910460ff1661014082015290565b6040516100aa9190610e7c565b60015460ff165b60405190151581526020016100aa565b6100a061021b366004610f7d565b610295565b6101fd61022e366004610fb9565b6104c9565b6100a0610241366004610e61565b610556565b610259610254366004610fec565b610577565b005b610259610269366004610f7d565b6105eb565b6001600160a01b038116600090815260208190526040812061028f90610767565b92915050565b600061029f6107d4565b6001600160a01b0384811660009081526020819052604080822060048082015492516370a0823160e01b81523391810191909152909391909116919082906370a0823190602401602060405180830381865afa158015610303573d6000803e3d6000fd5b505050506040513d601f19601f82011682018060405250810190610327919061104b565b90508560008190036103805760405162461bcd60e51b815260206004820152601760248201527f696e76616c696420776974686472617720616d6f756e7400000000000000000060448201526064015b60405180910390fd5b600019870361038c5750805b868210156103cf5760405162461bcd60e51b815260206004820152601060248201526f3737ba1032b737bab3b4103a37b5b2b760811b6044820152606401610377565b6103d8846107fa565b6103e68489856000856108b4565b856001600160a01b0316336001600160a01b0316896001600160a01b03167f3115d1449a7b732c986cba18244e897a450f61e1bb8d589cd2e69e6c8924f9f78460405161043591815260200190565b60405180910390a46001840154604051636b81068560e11b81523360048201526001600160a01b038881166024830152604482018490526001600160801b0390921660648201529084169063d7020d0a90608401600060405180830381600087803b1580156104a357600080fd5b505af11580156104b7573d6000803e3d6000fd5b509296505050505050505b9392505050565b6001600160a01b038281166000908152602081905260408082209051631daad27b60e01b8152600481018290529284166024840152909173__$428e6f89d5766b5933bfe1795914adfe3c$__90631daad27b9060440160006040518083038186803b15801561053757600080fd5b505af415801561054b573d6000803e3d6000fd5b505050505092915050565b6001600160a01b038116600090815260208190526040812061028f906108fc565b61057f6107d4565b6001600160a01b038681166000908152602081905260409020600401541633146105e35760405162461bcd60e51b815260206004820152601560248201527439b2b73232b91036bab9ba1031329030aa37b5b2b760591b6044820152606401610377565b505050505050565b6105f36107d4565b6001600160a01b0383166000908152602081905260408120908390036106545760405162461bcd60e51b81526020600482015260166024820152751a5b9d985b1a590819195c1bdcda5d08185b5bdd5b9d60521b6044820152606401610377565b60048101546001600160a01b031661066b826107fa565b6106798286838760006108b4565b61068d6001600160a01b0386168286610958565b6001820154604051630ab714fb60e11b81526001600160a01b038581166004830152602482018790526001600160801b0390921660448201529082169063156e29f6906064016020604051808303816000875af11580156106f2573d6000803e3d6000fd5b505050506040513d601f19601f820116820180604052508101906107169190611064565b5060408051338152602081018690526001600160a01b0380861692908816917f7cfff908a4b583f36430b25d75964c458d8ede8a99bd61be750e97ee1b2f3a96910160405180910390a35050505050565b600381015460009064ffffffffff600160801b909104811690421681900361079b575050600101546001600160801b031690565b60018301546000906107cc906001600160801b03808216916107c691600160801b90910416856109af565b906109f5565b949350505050565b60015460ff16156107f85760405163d93c066560e01b815260040160405180910390fd5b565b60068101546040805163b1bf962d60e01b815290516000926001600160a01b03169163b1bf962d9160048083019260209291908290030181865afa158015610846573d6000803e3d6000fd5b505050506040513d601f19601f8201168201806040525081019061086a919061104b565b6001830154600384015460028501549293506001600160801b0391821692600160801b90910464ffffffffff1691166000806108a98787878688610ac2565b505050505050505050565b6103e86108cb670de0b6b3a76400006104f161109c565b6108d591906110b3565b600190950180546001600160801b03968716600160801b0296169590951790945550505050565b600381015460009064ffffffffff600160801b9091048116904216810361092f575050600201546001600160801b031690565b60028301546104c2906001600160801b03808216916107c691600160801b909104168442610bb2565b604080516001600160a01b038416602482015260448082018490528251808303909101815260649091019091526020810180516001600160e01b031663a9059cbb60e01b1790526109aa908490610cdb565b505050565b6000806109c364ffffffffff8416426110d5565b90506b033b2e3c9fd0803ce80000006301e133806109e1838761109c565b6109eb91906110b3565b6107cc91906110e8565b6000821580610a02575081155b15610a0f5750600061028f565b81610a2760026b033b2e3c9fd0803ce80000006110b3565b610a33906000196110d5565b610a3d91906110b3565b831115610a8c5760405162461bcd60e51b815260206004820152601c60248201527f4d4154485f4d554c5449504c49434154494f4e5f4f564552464c4f57000000006044820152606401610377565b6b033b2e3c9fd0803ce8000000610aa46002826110b3565b610aae848661109c565b610ab891906110e8565b6104c291906110b3565b60018501546000908190600160801b90046001600160801b031685858215610b83576000610af084886109af565b9050610afc818a6109f5565b60018c0180546001600160801b0319166001600160801b03831617905592508915610b815760028b0154600090610b4490600160801b90046001600160801b03168942610bb2565b9050610b50818a6109f5565b92506001600160801b03831115610b7f5760028c0180546001600160801b0319166001600160801b0385161790555b505b505b600399909901805464ffffffffff60801b1916600160801b4264ffffffffff1602179055989650505050505050565b600080610bc664ffffffffff8516846110d5565b905080600003610be5576b033b2e3c9fd0803ce80000009150506104c2565b6000610bf26001836110d5565b9050600060028311610c05576000610c10565b610c106002846110d5565b90506000610c226301e13380896110b3565b90506000610c3082806109f5565b90506000610c3e82846109f5565b90506000600283610c4f888a61109c565b610c59919061109c565b610c6391906110b3565b9050600060068387610c758a8c61109c565b610c7f919061109c565b610c89919061109c565b610c9391906110b3565b90508082610ca18a8861109c565b610cb7906b033b2e3c9fd0803ce80000006110e8565b610cc191906110e8565b610ccb91906110e8565b9c9b505050505050505050505050565b6000610cf06001600160a01b03841683610d3e565b90508051600014158015610d15575080806020019051810190610d139190611064565b155b156109aa57604051635274afe760e01b81526001600160a01b0384166004820152602401610377565b60606104c28383600084600080856001600160a01b03168486604051610d6491906110fb565b60006040518083038185875af1925050503d8060008114610da1576040519150601f19603f3d011682016040523d82523d6000602084013e610da6565b606091505b5091509150610db6868383610dc0565b9695505050505050565b606082610dd557610dd082610e1c565b6104c2565b8151158015610dec57506001600160a01b0384163b155b15610e1557604051639996b31560e01b81526001600160a01b0385166004820152602401610377565b50806104c2565b805115610e2c5780518082602001fd5b604051630a12f52160e11b815260040160405180910390fd5b80356001600160a01b0381168114610e5c57600080fd5b919050565b600060208284031215610e7357600080fd5b6104c282610e45565b815151815261016081016020830151610ea060208401826001600160801b03169052565b506040830151610ebb60408401826001600160801b03169052565b506060830151610ed660608401826001600160801b03169052565b506080830151610ef160808401826001600160801b03169052565b5060a0830151610f0c60a08401826001600160801b03169052565b5060c0830151610f2560c084018264ffffffffff169052565b5060e0830151610f4060e08401826001600160a01b03169052565b50610100838101516001600160a01b039081169184019190915261012080850151909116908301526101409283015160ff16929091019190915290565b600080600060608486031215610f9257600080fd5b610f9b84610e45565b925060208401359150610fb060408501610e45565b90509250925092565b60008060408385031215610fcc57600080fd5b610fd583610e45565b9150610fe360208401610e45565b90509250929050565b60008060008060008060c0878903121561100557600080fd5b61100e87610e45565b955061101c60208801610e45565b945061102a60408801610e45565b9350606087013592506080870135915060a087013590509295509295509295565b60006020828403121561105d57600080fd5b5051919050565b60006020828403121561107657600080fd5b815180151581146104c257600080fd5b634e487b7160e01b600052601160045260246000fd5b808202811582820484141761028f5761028f611086565b6000826110d057634e487b7160e01b600052601260045260246000fd5b500490565b8181038181111561028f5761028f611086565b8082018082111561028f5761028f611086565b6000825160005b8181101561111c5760208186018101518583015201611102565b50600092019182525091905056fea26469706673582212204bf251dfe6c6d383a50cd01d8a1ad9be35756de220375edc2a6ba53c294a977264736f6c63430008150033","linkReferences":{"contracts/utils/logic/ReserveLogic.sol":{"ReserveLogic":[{"start":1324,"length":20}]}}},"methodIdentifiers":{"deposit(address,uint256,address)":"f45346dc","finalizeTransfer(address,address,address,uint256,uint256,uint256)":"d5ed3933","getReserveData(address)":"35ea6a75","getReserveNomalizedIncome(address)":"0ff44c96","getReserveNomalizedVariableDebt(address)":"c8b3e1fa","initReserve(address,address)":"6c3fbb80","paused()":"5c975abb","withdraw(address,uint256,address)":"69328dec"},"id":4}