{"abi":[{"type":"constructor","inputs":[],"stateMutability":"nonpayable"},{"type":"function","name":"getChainlinkDataFeedLatestAnswer","inputs":[],"outputs":[{"name":"","type":"int256","internalType":"int256"}],"stateMutability":"view"}],"bytecode":{"object":"0x608060405234801561001057600080fd5b50600080546001600160a01b031916731b44f3514812d835eb1bdb0acb33d3fa3351ee43179055610168806100466000396000f3fe608060405234801561001057600080fd5b506004361061002b5760003560e01c8063bea4dfb514610030575b600080fd5b61003861004a565b60405190815260200160405180910390f35b6000805460408051633fabe5a360e21b8152905183926001600160a01b03169163feaf968c9160048083019260a09291908290030181865afa158015610094573d6000803e3d6000fd5b505050506040513d601f19601f820116820180604052508101906100b891906100e2565b509195945050505050565b805169ffffffffffffffffffff811681146100dd57600080fd5b919050565b600080600080600060a086880312156100fa57600080fd5b610103866100c3565b9450602086015193506040860151925060608601519150610126608087016100c3565b9050929550929590935056fea264697066735822122061822f1e44ad29e62561149801307d85d639cf99a365e7c28553d7da5915c7ff64736f6c63430008150033","linkReferences":{}},"methodIdentifiers":{"getChainlinkDataFeedLatestAnswer()":"bea4dfb5"},"id":0}