{"abi":[{"type":"function","name":"DEBT_CEILING_DECIMALS","inputs":[],"outputs":[{"name":"","type":"uint256","internalType":"uint256"}],"stateMutability":"view"},{"type":"function","name":"MAX_RESERVES_COUNT","inputs":[],"outputs":[{"name":"","type":"uint16","internalType":"uint16"}],"stateMutability":"view"}],"bytecode":{"object":"0x60ab610038600b82828239805160001a607314602b57634e487b7160e01b600052600060045260246000fd5b30600052607381538281f3fe7300000000000000000000000000000000000000003014608060405260043610603d5760003560e01c8063280d5de914604257806331b561ba14605c575b600080fd5b6049600281565b6040519081526020015b60405180910390f35b6063608081565b60405161ffff9091168152602001605356fea2646970667358221220d4a53333a0adfdfe060131dddd50f212824f4a6b06076eb3d98d139d460c510964736f6c63430008150033","linkReferences":{}},"methodIdentifiers":{"DEBT_CEILING_DECIMALS()":"280d5de9","MAX_RESERVES_COUNT()":"31b561ba"},"id":10}