{"abi":[{"type":"function","name":"DOMAIN_SEPARATOR","inputs":[],"outputs":[{"name":"","type":"bytes32","internalType":"bytes32"}],"stateMutability":"view"},{"type":"function","name":"EIP712_REVISION","inputs":[],"outputs":[{"name":"","type":"bytes","internalType":"bytes"}],"stateMutability":"view"},{"type":"function","name":"PERMIT_TYPEHASH","inputs":[],"outputs":[{"name":"","type":"bytes32","internalType":"bytes32"}],"stateMutability":"view"},{"type":"function","name":"_pool","inputs":[],"outputs":[{"name":"","type":"address","internalType":"address"}],"stateMutability":"view"},{"type":"function","name":"allowance","inputs":[{"name":"owner","type":"address","internalType":"address"},{"name":"spender","type":"address","internalType":"address"}],"outputs":[{"name":"","type":"uint256","internalType":"uint256"}],"stateMutability":"view"},{"type":"function","name":"approve","inputs":[{"name":"spender","type":"address","internalType":"address"},{"name":"value","type":"uint256","internalType":"uint256"}],"outputs":[{"name":"","type":"bool","internalType":"bool"}],"stateMutability":"nonpayable"},{"type":"function","name":"balanceOf","inputs":[{"name":"account","type":"address","internalType":"address"}],"outputs":[{"name":"","type":"uint256","internalType":"uint256"}],"stateMutability":"view"},{"type":"function","name":"burn","inputs":[{"name":"account","type":"address","internalType":"address"},{"name":"receiver","type":"address","internalType":"address"},{"name":"amount","type":"uint256","internalType":"uint256"},{"name":"index","type":"uint256","internalType":"uint256"}],"outputs":[],"stateMutability":"nonpayable"},{"type":"function","name":"decimals","inputs":[],"outputs":[{"name":"","type":"uint8","internalType":"uint8"}],"stateMutability":"view"},{"type":"function","name":"initialize","inputs":[{"name":"pool","type":"address","internalType":"address"},{"name":"underlyingAsset","type":"address","internalType":"address"},{"name":"name","type":"string","internalType":"string"},{"name":"symbol","type":"string","internalType":"string"}],"outputs":[],"stateMutability":"nonpayable"},{"type":"function","name":"mint","inputs":[{"name":"account","type":"address","internalType":"address"},{"name":"amount","type":"uint256","internalType":"uint256"},{"name":"index","type":"uint256","internalType":"uint256"}],"outputs":[{"name":"","type":"bool","internalType":"bool"}],"stateMutability":"nonpayable"},{"type":"function","name":"name","inputs":[],"outputs":[{"name":"","type":"string","internalType":"string"}],"stateMutability":"view"},{"type":"function","name":"nonces","inputs":[{"name":"owner","type":"address","internalType":"address"}],"outputs":[{"name":"","type":"uint256","internalType":"uint256"}],"stateMutability":"view"},{"type":"function","name":"permit","inputs":[{"name":"owner","type":"address","internalType":"address"},{"name":"spender","type":"address","internalType":"address"},{"name":"value","type":"uint256","internalType":"uint256"},{"name":"deadline","type":"uint256","internalType":"uint256"},{"name":"v","type":"uint8","internalType":"uint8"},{"name":"r","type":"bytes32","internalType":"bytes32"},{"name":"s","type":"bytes32","internalType":"bytes32"}],"outputs":[],"stateMutability":"nonpayable"},{"type":"function","name":"symbol","inputs":[],"outputs":[{"name":"","type":"string","internalType":"string"}],"stateMutability":"view"},{"type":"function","name":"totalSupply","inputs":[],"outputs":[{"name":"","type":"uint256","internalType":"uint256"}],"stateMutability":"view"},{"type":"function","name":"transfer","inputs":[{"name":"to","type":"address","internalType":"address"},{"name":"value","type":"uint256","internalType":"uint256"}],"outputs":[{"name":"","type":"bool","internalType":"bool"}],"stateMutability":"nonpayable"},{"type":"function","name":"transferFrom","inputs":[{"name":"from","type":"address","internalType":"address"},{"name":"to","type":"address","internalType":"address"},{"name":"value","type":"uint256","internalType":"uint256"}],"outputs":[{"name":"","type":"bool","internalType":"bool"}],"stateMutability":"nonpayable"},{"type":"function","name":"transferOnLiquidation","inputs":[{"name":"from","type":"address","internalType":"address"},{"name":"to","type":"address","internalType":"address"},{"name":"amount","type":"uint256","internalType":"uint256"}],"outputs":[],"stateMutability":"nonpayable"},{"type":"event","name":"Approval","inputs":[{"name":"owner","type":"address","indexed":true,"internalType":"address"},{"name":"spender","type":"address","indexed":true,"internalType":"address"},{"name":"value","type":"uint256","indexed":false,"internalType":"uint256"}],"anonymous":false},{"type":"event","name":"Burn","inputs":[{"name":"from","type":"address","indexed":true,"internalType":"address"},{"name":"target","type":"address","indexed":true,"internalType":"address"},{"name":"value","type":"uint256","indexed":false,"internalType":"uint256"},{"name":"index","type":"uint256","indexed":false,"internalType":"uint256"}],"anonymous":false},{"type":"event","name":"Initialized","inputs":[{"name":"underlyingAsset","type":"address","indexed":true,"internalType":"address"},{"name":"pool","type":"address","indexed":true,"internalType":"address"},{"name":"aTokenName","type":"string","indexed":false,"internalType":"string"},{"name":"aTokenSymbol","type":"string","indexed":false,"internalType":"string"}],"anonymous":false},{"type":"event","name":"Initialized","inputs":[{"name":"version","type":"uint64","indexed":false,"internalType":"uint64"}],"anonymous":false},{"type":"event","name":"Mint","inputs":[{"name":"from","type":"address","indexed":true,"internalType":"address"},{"name":"value","type":"uint256","indexed":false,"internalType":"uint256"},{"name":"index","type":"uint256","indexed":false,"internalType":"uint256"}],"anonymous":false},{"type":"event","name":"Transfer","inputs":[{"name":"from","type":"address","indexed":true,"internalType":"address"},{"name":"to","type":"address","indexed":true,"internalType":"address"},{"name":"value","type":"uint256","indexed":false,"internalType":"uint256"}],"anonymous":false},{"type":"error","name":"AddressEmptyCode","inputs":[{"name":"target","type":"address","internalType":"address"}]},{"type":"error","name":"AddressInsufficientBalance","inputs":[{"name":"account","type":"address","internalType":"address"}]},{"type":"error","name":"ERC20InsufficientAllowance","inputs":[{"name":"spender","type":"address","internalType":"address"},{"name":"allowance","type":"uint256","internalType":"uint256"},{"name":"needed","type":"uint256","internalType":"uint256"}]},{"type":"error","name":"ERC20InsufficientBalance","inputs":[{"name":"sender","type":"address","internalType":"address"},{"name":"balance","type":"uint256","internalType":"uint256"},{"name":"needed","type":"uint256","internalType":"uint256"}]},{"type":"error","name":"ERC20InvalidApprover","inputs":[{"name":"approver","type":"address","internalType":"address"}]},{"type":"error","name":"ERC20InvalidReceiver","inputs":[{"name":"receiver","type":"address","internalType":"address"}]},{"type":"error","name":"ERC20InvalidSender","inputs":[{"name":"sender","type":"address","internalType":"address"}]},{"type":"error","name":"ERC20InvalidSpender","inputs":[{"name":"spender","type":"address","internalType":"address"}]},{"type":"error","name":"FailedInnerCall","inputs":[]},{"type":"error","name":"InvalidInitialization","inputs":[]},{"type":"error","name":"NotInitializing","inputs":[]},{"type":"error","name":"SafeERC20FailedOperation","inputs":[{"name":"token","type":"address","internalType":"address"}]}],"bytecode":{"object":"0x60a06040523480156200001157600080fd5b50604080518082018252600b8082526a105513d2d15397d253541360aa1b602080840182905284518086019095529184529083015290600362000055838262000116565b50600462000064828262000116565b50504660805250620001e2565b634e487b7160e01b600052604160045260246000fd5b600181811c908216806200009c57607f821691505b602082108103620000bd57634e487b7160e01b600052602260045260246000fd5b50919050565b601f8211156200011157600081815260208120601f850160051c81016020861015620000ec5750805b601f850160051c820191505b818110156200010d57828155600101620000f8565b5050505b505050565b81516001600160401b0381111562000132576200013262000071565b6200014a8162000143845462000087565b84620000c3565b602080601f831160018114620001825760008415620001695750858301515b600019600386901b1c1916600185901b1785556200010d565b600085815260208120601f198616915b82811015620001b35788860151825594840194600190910190840162000192565b5085821015620001d25787850151600019600388901b60f8161c191681555b5050505050600190811b01905550565b6080516119d3620001fe600039600061069101526119d36000f3fe608060405234801561001057600080fd5b50600436106101215760003560e01c8063636fc28b116100ad578063a9059cbb11610071578063a9059cbb14610281578063d505accf14610294578063d7020d0a146102a7578063dd62ed3e146102ba578063f866c319146102f357600080fd5b8063636fc28b146101f257806370a082311461021d57806378160376146102305780637ecebe001461025057806395d89b411461027957600080fd5b80632016a0d2116100f45780632016a0d21461018c57806323b872dd146101a157806330adf81f146101b4578063313ce567146101db5780633644e515146101ea57600080fd5b806306fdde0314610126578063095ea7b314610144578063156e29f61461016757806318160ddd1461017a575b600080fd5b61012e610306565b60405161013b91906113f8565b60405180910390f35b610157610152366004611427565b610398565b604051901515815260200161013b565b610157610175366004611451565b6103b2565b6002545b60405190815260200161013b565b61019f61019a366004611527565b6104d8565b005b6101576101af3660046115ac565b610668565b61017e7f6e71edae12b1b97f4d1f60370fef10105fa2faae0126114a169c64845d6126c981565b6040516012815260200161013b565b61017e61068c565b600754610205906001600160a01b031681565b6040516001600160a01b03909116815260200161013b565b61017e61022b3660046115e8565b6106c9565b61012e604051806040016040528060018152602001603160f81b81525081565b61017e61025e3660046115e8565b6001600160a01b031660009081526005602052604090205490565b61012e61075f565b61015761028f366004611427565b61076e565b61019f6102a2366004611603565b61077c565b61019f6102b5366004611676565b6109aa565b61017e6102c83660046116b8565b6001600160a01b03918216600090815260016020908152604080832093909416825291909152205490565b61019f6103013660046115ac565b610ad5565b606060098054610315906116eb565b80601f0160208091040260200160405190810160405280929190818152602001828054610341906116eb565b801561038e5780601f106103635761010080835404028352916020019161038e565b820191906000526020600020905b81548152906001019060200180831161037157829003601f168201915b5050505050905090565b6000336103a6818585610b4c565b60019150505b92915050565b6007546000906001600160a01b031633146103e85760405162461bcd60e51b81526004016103df90611725565b60405180910390fd5b6001600160a01b0384166000908152602081905260408120549061040c8585610b5e565b90508060000361044f5760405162461bcd60e51b815260206004820152600e60248201526d1a5b9d985b1a5908185b5bdd5b9d60921b60448201526064016103df565b6104598686610c5d565b6040518581526001600160a01b0387169060009060008051602061197e8339815191529060200160405180910390a360408051868152602081018690526001600160a01b038816917f4c209b5fc8ad50758f13e2e1088ba56a560dff690a1c6fef26394f4c03821c4f910160405180910390a2501590505b9392505050565b7ff0c57e16840df040f15088dc2f81fe391c3923bec73e23a9662efc9c229c6a008054600160401b810460ff16159067ffffffffffffffff1660008115801561051e5750825b905060008267ffffffffffffffff16600114801561053b5750303b155b905081158015610549575080155b156105675760405163f92ee8a960e01b815260040160405180910390fd5b845467ffffffffffffffff19166001178555831561059157845460ff60401b1916600160401b1785555b46600961059e89826117aa565b50600a6105ab88826117aa565b50600780546001600160a01b03808d166001600160a01b0319928316811790935560088054918d169190921681179091556040517f45705fbd98b82017a03e6b75118b5900c6a3e840d26142e2d30214c0dd7a92df9061060e908c908c9061186a565b60405180910390a350831561065d57845460ff60401b19168555604051600181527fc7f505b2f371ae2175ee4913f4499e1f2633a7b5936321eed1cdaeb6115181d29060200160405180910390a15b505050505050505050565b600033610676858285610c97565b610681858585610d15565b506001949350505050565b6000467f0000000000000000000000000000000000000000000000000000000000000000036106bc575060065490565b6106c4610d74565b905090565b6007546008546040516307fa264b60e11b81526001600160a01b0391821660048201526000926103ac921690630ff44c9690602401602060405180830381865afa15801561071b573d6000803e3d6000fd5b505050506040513d601f19601f8201168201806040525081019061073f9190611898565b6001600160a01b0384166000908152602081905260409020545b90610e1d565b6060600a8054610315906116eb565b6000336103a6818585610d15565b604080518082019091526002815261373760f01b60208201526001600160a01b0388166107bc5760405162461bcd60e51b81526004016103df91906113f8565b50834211156040518060400160405280600281526020016106e760f31b815250906107fa5760405162461bcd60e51b81526004016103df91906113f8565b506001600160a01b0387166000908152600560205260408120549061081d61068c565b604080517f6e71edae12b1b97f4d1f60370fef10105fa2faae0126114a169c64845d6126c960208201526001600160a01b03808d1692820192909252908a1660608201526080810189905260a0810184905260c0810188905260e001604051602081830303815290604052805190602001206040516020016108b692919061190160f01b81526002810192909252602282015260420190565b60408051601f1981840301815282825280516020918201206000845290830180835281905260ff8816918301919091526060820186905260808201859052915060019060a0016020604051602081039080840390855afa15801561091e573d6000803e3d6000fd5b505050602060405103516001600160a01b0316896001600160a01b03161460405180604001604052806002815260200161373960f01b815250906109755760405162461bcd60e51b81526004016103df91906113f8565b506001600160a01b038916600090815260056020526040812080549161099a836118c7565b919050555061065d898989610b4c565b6007546001600160a01b031633146109d45760405162461bcd60e51b81526004016103df90611725565b60006109e08383610b5e565b905080600003610a285760405162461bcd60e51b81526020600482015260136024820152721a5b9d985a5b1908189d5c9b88185b5bdd5b9d606a1b60448201526064016103df565b610a328584610eea565b600854610a49906001600160a01b03168585610f20565b6040518381526000906001600160a01b0387169060008051602061197e8339815191529060200160405180910390a3836001600160a01b0316856001600160a01b03167f5d624aa9c148153ab3446c1b154f660ee7701e549fe9b62dab7171b1c80e6fa28585604051610ac6929190918252602082015260400190565b60405180910390a35050505050565b6007546001600160a01b03163314610aff5760405162461bcd60e51b81526004016103df90611725565b610b0c8383836000610f72565b816001600160a01b0316836001600160a01b031660008051602061197e83398151915283604051610b3f91815260200190565b60405180910390a3505050565b610b598383836001611055565b505050565b600081600003610ba85760405162461bcd60e51b81526020600482015260156024820152744d4154485f4449564953494f4e5f42595f5a45524f60581b60448201526064016103df565b6000610bb56002846118e0565b90506b033b2e3c9fd0803ce8000000610bd082600019611902565b610bda91906118e0565b841115610c295760405162461bcd60e51b815260206004820152601c60248201527f4d4154485f4d554c5449504c49434154494f4e5f4f564552464c4f570000000060448201526064016103df565b8281610c416b033b2e3c9fd0803ce800000087611915565b610c4b919061192c565b610c5591906118e0565b949350505050565b6001600160a01b038216610c875760405163ec442f0560e01b8152600060048201526024016103df565b610c936000838361112a565b5050565b6001600160a01b038381166000908152600160209081526040808320938616835292905220546000198114610d0f5781811015610d0057604051637dc7a0d960e11b81526001600160a01b038416600482015260248101829052604481018390526064016103df565b610d0f84848484036000611055565b50505050565b6001600160a01b038316610d3f57604051634b637e8f60e11b8152600060048201526024016103df565b6001600160a01b038216610d695760405163ec442f0560e01b8152600060048201526024016103df565b610b5983838361112a565b60007f8b73c3c69bb8fe3d512ecc4cf759cc79239f7b179b0ffacaa9a75d522b39400f610d9f611234565b805160209182012060408051808201825260018152603160f81b90840152805192830193909352918101919091527fc89efdaa54c0f20c7adf612882df0950f5a951637e0307cdcb4c672f298b8bc660608201524660808201523060a082015260c00160405160208183030381529060405280519060200120905090565b6000821580610e2a575081155b15610e37575060006103ac565b81610e4f60026b033b2e3c9fd0803ce80000006118e0565b610e5b90600019611902565b610e6591906118e0565b831115610eb45760405162461bcd60e51b815260206004820152601c60248201527f4d4154485f4d554c5449504c49434154494f4e5f4f564552464c4f570000000060448201526064016103df565b6b033b2e3c9fd0803ce8000000610ecc6002826118e0565b610ed68486611915565b610ee0919061192c565b6104d191906118e0565b6001600160a01b038216610f1457604051634b637e8f60e11b8152600060048201526024016103df565b610c938260008361112a565b604080516001600160a01b038416602482015260448082018490528251808303909101815260649091019091526020810180516001600160e01b031663a9059cbb60e01b179052610b5990849061123e565b6008546007546040516307fa264b60e11b81526001600160a01b039283166004820181905292909116906000908290630ff44c9690602401602060405180830381865afa158015610fc7573d6000803e3d6000fd5b505050506040513d601f19601f82011682018060405250810190610feb9190611898565b90506000611012826107598a6001600160a01b031660009081526020819052604090205490565b90506000611039836107598a6001600160a01b031660009081526020819052604090205490565b90506110498861028f8986610b5e565b50505050505050505050565b6001600160a01b03841661107f5760405163e602df0560e01b8152600060048201526024016103df565b6001600160a01b0383166110a957604051634a1406b160e11b8152600060048201526024016103df565b6001600160a01b0380851660009081526001602090815260408083209387168352929052208290558015610d0f57826001600160a01b0316846001600160a01b03167f8c5be1e5ebec7d5bd14f71427d1e84f3dd0314c0f7b2291e5b200ac8c7c3b9258460405161111c91815260200190565b60405180910390a350505050565b6001600160a01b03831661115557806002600082825461114a919061192c565b909155506111c79050565b6001600160a01b038316600090815260208190526040902054818110156111a85760405163391434e360e21b81526001600160a01b038516600482015260248101829052604481018390526064016103df565b6001600160a01b03841660009081526020819052604090209082900390555b6001600160a01b0382166111e357600280548290039055610b0c565b6001600160a01b0382166000908152602081905260409020805482019055816001600160a01b0316836001600160a01b031660008051602061197e83398151915283604051610b3f91815260200190565b60606106c4610306565b60006112536001600160a01b038416836112a1565b90508051600014158015611278575080806020019051810190611276919061193f565b155b15610b5957604051635274afe760e01b81526001600160a01b03841660048201526024016103df565b60606104d18383600084600080856001600160a01b031684866040516112c79190611961565b60006040518083038185875af1925050503d8060008114611304576040519150601f19603f3d011682016040523d82523d6000602084013e611309565b606091505b5091509150611319868383611323565b9695505050505050565b606082611338576113338261137f565b6104d1565b815115801561134f57506001600160a01b0384163b155b1561137857604051639996b31560e01b81526001600160a01b03851660048201526024016103df565b50806104d1565b80511561138f5780518082602001fd5b604051630a12f52160e11b815260040160405180910390fd5b60005b838110156113c35781810151838201526020016113ab565b50506000910152565b600081518084526113e48160208601602086016113a8565b601f01601f19169290920160200192915050565b6020815260006104d160208301846113cc565b80356001600160a01b038116811461142257600080fd5b919050565b6000806040838503121561143a57600080fd5b6114438361140b565b946020939093013593505050565b60008060006060848603121561146657600080fd5b61146f8461140b565b95602085013595506040909401359392505050565b634e487b7160e01b600052604160045260246000fd5b600082601f8301126114ab57600080fd5b813567ffffffffffffffff808211156114c6576114c6611484565b604051601f8301601f19908116603f011681019082821181831017156114ee576114ee611484565b8160405283815286602085880101111561150757600080fd5b836020870160208301376000602085830101528094505050505092915050565b6000806000806080858703121561153d57600080fd5b6115468561140b565b93506115546020860161140b565b9250604085013567ffffffffffffffff8082111561157157600080fd5b61157d8883890161149a565b9350606087013591508082111561159357600080fd5b506115a08782880161149a565b91505092959194509250565b6000806000606084860312156115c157600080fd5b6115ca8461140b565b92506115d86020850161140b565b9150604084013590509250925092565b6000602082840312156115fa57600080fd5b6104d18261140b565b600080600080600080600060e0888a03121561161e57600080fd5b6116278861140b565b96506116356020890161140b565b95506040880135945060608801359350608088013560ff8116811461165957600080fd5b9699959850939692959460a0840135945060c09093013592915050565b6000806000806080858703121561168c57600080fd5b6116958561140b565b93506116a36020860161140b565b93969395505050506040820135916060013590565b600080604083850312156116cb57600080fd5b6116d48361140b565b91506116e26020840161140b565b90509250929050565b600181811c908216806116ff57607f821691505b60208210810361171f57634e487b7160e01b600052602260045260246000fd5b50919050565b6020808252601b908201527f63616c6c6572206d757374206265206c656e64696e6720706f6f6c0000000000604082015260600190565b601f821115610b5957600081815260208120601f850160051c810160208610156117835750805b601f850160051c820191505b818110156117a25782815560010161178f565b505050505050565b815167ffffffffffffffff8111156117c4576117c4611484565b6117d8816117d284546116eb565b8461175c565b602080601f83116001811461180d57600084156117f55750858301515b600019600386901b1c1916600185901b1785556117a2565b600085815260208120601f198616915b8281101561183c5788860151825594840194600190910190840161181d565b508582101561185a5787850151600019600388901b60f8161c191681555b5050505050600190811b01905550565b60408152600061187d60408301856113cc565b828103602084015261188f81856113cc565b95945050505050565b6000602082840312156118aa57600080fd5b5051919050565b634e487b7160e01b600052601160045260246000fd5b6000600182016118d9576118d96118b1565b5060010190565b6000826118fd57634e487b7160e01b600052601260045260246000fd5b500490565b818103818111156103ac576103ac6118b1565b80820281158282048414176103ac576103ac6118b1565b808201808211156103ac576103ac6118b1565b60006020828403121561195157600080fd5b815180151581146104d157600080fd5b600082516119738184602087016113a8565b919091019291505056feddf252ad1be2c89b69c2b068fc378daa952ba7f163c4a11628f55a4df523b3efa2646970667358221220b66da7f92351629d30c959684e1d13c10c02c0545c41b76618d06e5e72c1fd1b64736f6c63430008150033","linkReferences":{}},"methodIdentifiers":{"DOMAIN_SEPARATOR()":"3644e515","EIP712_REVISION()":"78160376","PERMIT_TYPEHASH()":"30adf81f","_pool()":"636fc28b","allowance(address,address)":"dd62ed3e","approve(address,uint256)":"095ea7b3","balanceOf(address)":"70a08231","burn(address,address,uint256,uint256)":"d7020d0a","decimals()":"313ce567","initialize(address,address,string,string)":"2016a0d2","mint(address,uint256,uint256)":"156e29f6","name()":"06fdde03","nonces(address)":"7ecebe00","permit(address,address,uint256,uint256,uint8,bytes32,bytes32)":"d505accf","symbol()":"95d89b41","totalSupply()":"18160ddd","transfer(address,uint256)":"a9059cbb","transferFrom(address,address,uint256)":"23b872dd","transferOnLiquidation(address,address,uint256)":"f866c319"},"id":1}