{"abi":[{"type":"constructor","inputs":[{"name":"_pkmToken","type":"address","internalType":"address"}],"stateMutability":"nonpayable"},{"type":"function","name":"calculateReward","inputs":[{"name":"staker","type":"address","internalType":"address"}],"outputs":[{"name":"","type":"uint256","internalType":"uint256"}],"stateMutability":"view"},{"type":"function","name":"owner","inputs":[],"outputs":[{"name":"","type":"address","internalType":"address"}],"stateMutability":"view"},{"type":"function","name":"pkmToken","inputs":[],"outputs":[{"name":"","type":"address","internalType":"contract IERC20"}],"stateMutability":"view"},{"type":"function","name":"renounceOwnership","inputs":[],"outputs":[],"stateMutability":"nonpayable"},{"type":"function","name":"rewardRate","inputs":[],"outputs":[{"name":"","type":"uint256","internalType":"uint256"}],"stateMutability":"view"},{"type":"function","name":"stake","inputs":[{"name":"amount","type":"uint256","internalType":"uint256"}],"outputs":[],"stateMutability":"nonpayable"},{"type":"function","name":"stakes","inputs":[{"name":"","type":"address","internalType":"address"}],"outputs":[{"name":"amount","type":"uint256","internalType":"uint256"},{"name":"lastStakedTime","type":"uint256","internalType":"uint256"}],"stateMutability":"view"},{"type":"function","name":"transferOwnership","inputs":[{"name":"newOwner","type":"address","internalType":"address"}],"outputs":[],"stateMutability":"nonpayable"},{"type":"function","name":"withdraw","inputs":[],"outputs":[],"stateMutability":"nonpayable"},{"type":"event","name":"OwnershipTransferred","inputs":[{"name":"previousOwner","type":"address","indexed":true,"internalType":"address"},{"name":"newOwner","type":"address","indexed":true,"internalType":"address"}],"anonymous":false},{"type":"error","name":"OwnableInvalidOwner","inputs":[{"name":"owner","type":"address","internalType":"address"}]},{"type":"error","name":"OwnableUnauthorizedAccount","inputs":[{"name":"account","type":"address","internalType":"address"}]}],"bytecode":{"object":"0x6080604052600160025534801561001557600080fd5b506040516106ca3803806106ca833981016040819052610034916100d9565b338061005a57604051631e4fbdf760e01b81526000600482015260240160405180910390fd5b61006381610089565b50600180546001600160a01b0319166001600160a01b0392909216919091179055610109565b600080546001600160a01b038381166001600160a01b0319831681178455604051919092169283917f8be0079c531659141344cd1fd0a4f28419497f9722a3daafe3b4186f6b6457e09190a35050565b6000602082840312156100eb57600080fd5b81516001600160a01b038116811461010257600080fd5b9392505050565b6105b2806101186000396000f3fe608060405234801561001057600080fd5b50600436106100935760003560e01c80637b0a47ee116100665780637b0a47ee146101165780638da5cb5b1461012d578063a694fc3a1461013e578063d82e396214610151578063f2fde38b1461016457600080fd5b806316934fc4146100985780633ccfd60b146100d95780634b622d48146100e3578063715018a61461010e575b600080fd5b6100bf6100a6366004610496565b6003602052600090815260409020805460019091015482565b604080519283526020830191909152015b60405180910390f35b6100e1610177565b005b6001546100f6906001600160a01b031681565b6040516001600160a01b0390911681526020016100d0565b6100e161026b565b61011f60025481565b6040519081526020016100d0565b6000546001600160a01b03166100f6565b6100e161014c3660046104c6565b61027f565b61011f61015f366004610496565b61036e565b6100e1610172366004610496565b6103db565b33600090815260036020526040902080546101cc5760405162461bcd60e51b815260206004820152601060248201526f139bc81d1bdad95b9cc81cdd185ad95960821b60448201526064015b60405180910390fd5b60006101d73361036e565b905060008183600001546101eb91906104f5565b6000845560015460405163a9059cbb60e01b8152336004820152602481018390529192506001600160a01b03169063a9059cbb906044016020604051808303816000875af1158015610241573d6000803e3d6000fd5b505050506040513d601f19601f82011682018060405250810190610265919061050e565b50505050565b610273610419565b61027d6000610446565b565b600081116102c05760405162461bcd60e51b815260206004820152600e60248201526d043616e6e6f74207374616b6520360941b60448201526064016101c3565b6001546040516323b872dd60e01b8152336004820152306024820152604481018390526001600160a01b03909116906323b872dd906064016020604051808303816000875af1158015610317573d6000803e3d6000fd5b505050506040513d601f19601f8201168201806040525081019061033b919061050e565b5033600090815260036020526040812080549091839183919061035f9084906104f5565b90915550504260019091015550565b6001600160a01b0381166000908152600360205260408120600181015482906103979042610530565b905060006201518060648360025486600001546103b49190610543565b6103be9190610543565b6103c8919061055a565b6103d2919061055a565b95945050505050565b6103e3610419565b6001600160a01b03811661040d57604051631e4fbdf760e01b8152600060048201526024016101c3565b61041681610446565b50565b6000546001600160a01b0316331461027d5760405163118cdaa760e01b81523360048201526024016101c3565b600080546001600160a01b038381166001600160a01b0319831681178455604051919092169283917f8be0079c531659141344cd1fd0a4f28419497f9722a3daafe3b4186f6b6457e09190a35050565b6000602082840312156104a857600080fd5b81356001600160a01b03811681146104bf57600080fd5b9392505050565b6000602082840312156104d857600080fd5b5035919050565b634e487b7160e01b600052601160045260246000fd5b80820180821115610508576105086104df565b92915050565b60006020828403121561052057600080fd5b815180151581146104bf57600080fd5b81810381811115610508576105086104df565b8082028115828204841417610508576105086104df565b60008261057757634e487b7160e01b600052601260045260246000fd5b50049056fea26469706673582212209f20d907b8bfcf15feca44a0344f8cf1fbb1448d04ce11d845728b116f4787a364736f6c63430008150033","linkReferences":{}},"methodIdentifiers":{"calculateReward(address)":"d82e3962","owner()":"8da5cb5b","pkmToken()":"4b622d48","renounceOwnership()":"715018a6","rewardRate()":"7b0a47ee","stake(uint256)":"a694fc3a","stakes(address)":"16934fc4","transferOwnership(address)":"f2fde38b","withdraw()":"3ccfd60b"},"id":5}