{"abi":[{"type":"function","name":"DELEGATION_WITH_SIG_TYPEHASH","inputs":[],"outputs":[{"name":"","type":"bytes32","internalType":"bytes32"}],"stateMutability":"view"},{"type":"function","name":"DOMAIN_SEPARATOR","inputs":[],"outputs":[{"name":"","type":"bytes32","internalType":"bytes32"}],"stateMutability":"view"},{"type":"function","name":"EIP712_REVISION","inputs":[],"outputs":[{"name":"","type":"bytes","internalType":"bytes"}],"stateMutability":"view"},{"type":"function","name":"allowance","inputs":[{"name":"owner","type":"address","internalType":"address"},{"name":"spender","type":"address","internalType":"address"}],"outputs":[{"name":"","type":"uint256","internalType":"uint256"}],"stateMutability":"view"},{"type":"function","name":"approve","inputs":[{"name":"spender","type":"address","internalType":"address"},{"name":"amount","type":"uint256","internalType":"uint256"}],"outputs":[{"name":"","type":"bool","internalType":"bool"}],"stateMutability":"nonpayable"},{"type":"function","name":"approveDelegation","inputs":[{"name":"user","type":"address","internalType":"address"},{"name":"amount","type":"uint256","internalType":"uint256"}],"outputs":[],"stateMutability":"nonpayable"},{"type":"function","name":"balanceOf","inputs":[{"name":"user","type":"address","internalType":"address"}],"outputs":[{"name":"","type":"uint256","internalType":"uint256"}],"stateMutability":"view"},{"type":"function","name":"borrowAllowance","inputs":[{"name":"fromUser","type":"address","internalType":"address"},{"name":"toUser","type":"address","internalType":"address"}],"outputs":[{"name":"","type":"uint256","internalType":"uint256"}],"stateMutability":"view"},{"type":"function","name":"burn","inputs":[{"name":"user","type":"address","internalType":"address"},{"name":"amount","type":"uint256","internalType":"uint256"},{"name":"index","type":"uint256","internalType":"uint256"}],"outputs":[],"stateMutability":"nonpayable"},{"type":"function","name":"decimals","inputs":[],"outputs":[{"name":"","type":"uint8","internalType":"uint8"}],"stateMutability":"view"},{"type":"function","name":"delegationWithSig","inputs":[{"name":"delegator","type":"address","internalType":"address"},{"name":"delegatee","type":"address","internalType":"address"},{"name":"value","type":"uint256","internalType":"uint256"},{"name":"deadline","type":"uint256","internalType":"uint256"},{"name":"v","type":"uint8","internalType":"uint8"},{"name":"r","type":"bytes32","internalType":"bytes32"},{"name":"s","type":"bytes32","internalType":"bytes32"}],"outputs":[],"stateMutability":"nonpayable"},{"type":"function","name":"getScaledUserBalanceAndSupply","inputs":[{"name":"user","type":"address","internalType":"address"}],"outputs":[{"name":"","type":"uint256","internalType":"uint256"},{"name":"","type":"uint256","internalType":"uint256"}],"stateMutability":"view"},{"type":"function","name":"initialize","inputs":[{"name":"pool","type":"address","internalType":"contract LendingPool"},{"name":"underlyingAsset","type":"address","internalType":"address"},{"name":"name","type":"string","internalType":"string"},{"name":"symbol","type":"string","internalType":"string"}],"outputs":[],"stateMutability":"nonpayable"},{"type":"function","name":"mint","inputs":[{"name":"user","type":"address","internalType":"address"},{"name":"onBehalfOf","type":"address","internalType":"address"},{"name":"amount","type":"uint256","internalType":"uint256"},{"name":"index","type":"uint256","internalType":"uint256"}],"outputs":[{"name":"","type":"bool","internalType":"bool"}],"stateMutability":"nonpayable"},{"type":"function","name":"name","inputs":[],"outputs":[{"name":"","type":"string","internalType":"string"}],"stateMutability":"view"},{"type":"function","name":"nonces","inputs":[{"name":"owner","type":"address","internalType":"address"}],"outputs":[{"name":"","type":"uint256","internalType":"uint256"}],"stateMutability":"view"},{"type":"function","name":"scaledBalanceOf","inputs":[{"name":"user","type":"address","internalType":"address"}],"outputs":[{"name":"","type":"uint256","internalType":"uint256"}],"stateMutability":"view"},{"type":"function","name":"scaledTotalSupply","inputs":[],"outputs":[{"name":"","type":"uint256","internalType":"uint256"}],"stateMutability":"view"},{"type":"function","name":"symbol","inputs":[],"outputs":[{"name":"","type":"string","internalType":"string"}],"stateMutability":"view"},{"type":"function","name":"totalSupply","inputs":[],"outputs":[{"name":"","type":"uint256","internalType":"uint256"}],"stateMutability":"view"},{"type":"function","name":"transfer","inputs":[{"name":"recipient","type":"address","internalType":"address"},{"name":"amount","type":"uint256","internalType":"uint256"}],"outputs":[{"name":"","type":"bool","internalType":"bool"}],"stateMutability":"nonpayable"},{"type":"function","name":"transferFrom","inputs":[{"name":"sender","type":"address","internalType":"address"},{"name":"recipient","type":"address","internalType":"address"},{"name":"amount","type":"uint256","internalType":"uint256"}],"outputs":[{"name":"","type":"bool","internalType":"bool"}],"stateMutability":"nonpayable"},{"type":"event","name":"Approval","inputs":[{"name":"owner","type":"address","indexed":true,"internalType":"address"},{"name":"spender","type":"address","indexed":true,"internalType":"address"},{"name":"value","type":"uint256","indexed":false,"internalType":"uint256"}],"anonymous":false},{"type":"event","name":"BorrowAllowanceDelegated","inputs":[{"name":"fromUser","type":"address","indexed":true,"internalType":"address"},{"name":"toUser","type":"address","indexed":true,"internalType":"address"},{"name":"asset","type":"address","indexed":false,"internalType":"address"},{"name":"amount","type":"uint256","indexed":false,"internalType":"uint256"}],"anonymous":false},{"type":"event","name":"Burn","inputs":[{"name":"user","type":"address","indexed":true,"internalType":"address"},{"name":"amount","type":"uint256","indexed":false,"internalType":"uint256"},{"name":"index","type":"uint256","indexed":false,"internalType":"uint256"}],"anonymous":false},{"type":"event","name":"Initialized","inputs":[{"name":"underlyingAsset","type":"address","indexed":true,"internalType":"address"},{"name":"pool","type":"address","indexed":true,"internalType":"address"},{"name":"aTokenName","type":"string","indexed":false,"internalType":"string"},{"name":"aTokenSymbol","type":"string","indexed":false,"internalType":"string"}],"anonymous":false},{"type":"event","name":"Initialized","inputs":[{"name":"version","type":"uint64","indexed":false,"internalType":"uint64"}],"anonymous":false},{"type":"event","name":"Mint","inputs":[{"name":"from","type":"address","indexed":true,"internalType":"address"},{"name":"onBehalfOf","type":"address","indexed":true,"internalType":"address"},{"name":"value","type":"uint256","indexed":false,"internalType":"uint256"},{"name":"index","type":"uint256","indexed":false,"internalType":"uint256"}],"anonymous":false},{"type":"event","name":"Transfer","inputs":[{"name":"from","type":"address","indexed":true,"internalType":"address"},{"name":"to","type":"address","indexed":true,"internalType":"address"},{"name":"value","type":"uint256","indexed":false,"internalType":"uint256"}],"anonymous":false},{"type":"error","name":"ERC20InsufficientAllowance","inputs":[{"name":"spender","type":"address","internalType":"address"},{"name":"allowance","type":"uint256","internalType":"uint256"},{"name":"needed","type":"uint256","internalType":"uint256"}]},{"type":"error","name":"ERC20InsufficientBalance","inputs":[{"name":"sender","type":"address","internalType":"address"},{"name":"balance","type":"uint256","internalType":"uint256"},{"name":"needed","type":"uint256","internalType":"uint256"}]},{"type":"error","name":"ERC20InvalidApprover","inputs":[{"name":"approver","type":"address","internalType":"address"}]},{"type":"error","name":"ERC20InvalidReceiver","inputs":[{"name":"receiver","type":"address","internalType":"address"}]},{"type":"error","name":"ERC20InvalidSender","inputs":[{"name":"sender","type":"address","internalType":"address"}]},{"type":"error","name":"ERC20InvalidSpender","inputs":[{"name":"spender","type":"address","internalType":"address"}]},{"type":"error","name":"InvalidInitialization","inputs":[]},{"type":"error","name":"NotInitializing","inputs":[]}],"bytecode":{"object":"0x60a06040523480156200001157600080fd5b50604080518082018252600e8082526d111150951513d2d15397d253541360921b602080840182905284518086019095529184529083015290600362000058838262000119565b50600462000067828262000119565b50504660805250620001e5565b634e487b7160e01b600052604160045260246000fd5b600181811c908216806200009f57607f821691505b602082108103620000c057634e487b7160e01b600052602260045260246000fd5b50919050565b601f8211156200011457600081815260208120601f850160051c81016020861015620000ef5750805b601f850160051c820191505b818110156200011057828155600101620000fb565b5050505b505050565b81516001600160401b0381111562000135576200013562000074565b6200014d816200014684546200008a565b84620000c6565b602080601f8311600181146200018557600084156200016c5750858301515b600019600386901b1c1916600185901b17855562000110565b600085815260208120601f198616915b82811015620001b65788860151825594840194600190910190840162000195565b5085821015620001d55787850151600019600388901b60f8161c191681555b5050505050600190811b01905550565b6080516117cf6200020160003960006108fe01526117cf6000f3fe608060405234801561001057600080fd5b50600436106101425760003560e01c806370a08231116100b8578063b1bf962d1161007c578063b1bf962d146102f0578063b3f1c93d146102f8578063c04a8a101461030b578063dd62ed3e1461031e578063f3bfc73814610331578063f5298aca1461035857600080fd5b806370a082311461027e57806378160376146102915780637ecebe00146102b157806395d89b41146102da578063a9059cbb146102e257600080fd5b80631da24f3e1161010a5780631da24f3e146101f55780632016a0d21461020857806323b872dd1461021b578063313ce5671461022e5780633644e5151461023d5780636bd76d241461024557600080fd5b806306fdde0314610147578063095ea7b3146101655780630afbcdc9146101885780630b52d558146101ca57806318160ddd146101df575b600080fd5b61014f61036b565b60405161015c9190611288565b60405180910390f35b6101786101733660046112b3565b6103fd565b604051901515815260200161015c565b6101b56101963660046112df565b6001600160a01b03166000908152602081905260409020546002549091565b6040805192835260208301919091520161015c565b6101dd6101d83660046112fc565b610446565b005b6101e7610671565b60405190815260200161015c565b6101e76102033660046112df565b6106f5565b6101dd610216366004611416565b610715565b61017861022936600461149f565b6108b5565b6040516012815260200161015c565b6101e76108f9565b6101e76102533660046114e0565b6001600160a01b03918216600090815260076020908152604080832093909416825291909152205490565b6101e761028c3660046112df565b610931565b61014f604051806040016040528060018152602001603160f81b81525081565b6101e76102bf3660046112df565b6001600160a01b031660009081526005602052604090205490565b61014f6109df565b6101786102293660046112b3565b6101e76109ee565b610178610306366004611519565b6109f9565b6101dd6103193660046112b3565b610b50565b6101e761032c3660046114e0565b610bd9565b6101e77f323db0410fecc107e39e2af5908671f4c8d106123b35a51501bb805c5fa36aa081565b6101dd61036636600461155f565b610c24565b6060600a805461037a90611594565b80601f01602080910402602001604051908101604052809291908181526020018280546103a690611594565b80156103f35780601f106103c8576101008083540402835291602001916103f3565b820191906000526020600020905b8154815290600101906020018083116103d657829003601f168201915b5050505050905090565b60405162461bcd60e51b81526020600482015260166024820152751054141493d5905317d393d517d4d5541413d495115160521b60448201526000906064015b60405180910390fd5b604080518082019091526002815261373760f01b60208201526001600160a01b0388166104865760405162461bcd60e51b815260040161043d9190611288565b50834211156040518060400160405280600281526020016106e760f31b815250906104c45760405162461bcd60e51b815260040161043d9190611288565b506001600160a01b038716600090815260056020526040812054906104e76108f9565b604080517f323db0410fecc107e39e2af5908671f4c8d106123b35a51501bb805c5fa36aa060208201526001600160a01b038b1691810191909152606081018990526080810184905260a0810188905260c0016040516020818303038152906040528051906020012060405160200161057792919061190160f01b81526002810192909252602282015260420190565b60408051601f1981840301815282825280516020918201206000845290830180835281905260ff8816918301919091526060820186905260808201859052915060019060a0016020604051602081039080840390855afa1580156105df573d6000803e3d6000fd5b505050602060405103516001600160a01b0316896001600160a01b03161460405180604001604052806002815260200161373960f01b815250906106365760405162461bcd60e51b815260040161043d9190611288565b506106428260016115e4565b6001600160a01b038a16600090815260056020526040902055610666898989610d0c565b505050505050505050565b600954600854604051636459f0fd60e11b81526001600160a01b0391821660048201526000926106f092169063c8b3e1fa90602401602060405180830381865afa1580156106c3573d6000803e3d6000fd5b505050506040513d601f19601f820116820180604052508101906106e791906115f7565b60025490610d7a565b905090565b6001600160a01b0381166000908152602081905260408120545b92915050565b7ff0c57e16840df040f15088dc2f81fe391c3923bec73e23a9662efc9c229c6a008054600160401b810460ff16159067ffffffffffffffff1660008115801561075b5750825b905060008267ffffffffffffffff1660011480156107785750303b155b905081158015610786575080155b156107a45760405163f92ee8a960e01b815260040160405180910390fd5b845467ffffffffffffffff1916600117855583156107ce57845460ff60401b1916600160401b1785555b600980546001600160a01b03808c166001600160a01b03199283161790925560088054928b1692909116919091179055600a61080a888261165f565b50600b610817878261165f565b50886001600160a01b0316886001600160a01b03167f45705fbd98b82017a03e6b75118b5900c6a3e840d26142e2d30214c0dd7a92df898960405161085d92919061171f565b60405180910390a3831561066657845460ff60401b19168555604051600181527fc7f505b2f371ae2175ee4913f4499e1f2633a7b5936321eed1cdaeb6115181d29060200160405180910390a1505050505050505050565b60405162461bcd60e51b81526020600482015260166024820152751514905394d1915497d393d517d4d5541413d495115160521b604482015260009060640161043d565b6000467f000000000000000000000000000000000000000000000000000000000000000003610929575060065490565b6106f0610e47565b6001600160a01b0381166000908152602081905260408120548060000361095b5750600092915050565b600954600854604051636459f0fd60e11b81526001600160a01b0391821660048201526109d892919091169063c8b3e1fa90602401602060405180830381865afa1580156109ad573d6000803e3d6000fd5b505050506040513d601f19601f820116820180604052508101906109d191906115f7565b8290610d7a565b9392505050565b6060600b805461037a90611594565b60006106f060025490565b6000610a0d6009546001600160a01b031690565b6001600160a01b0316336001600160a01b031614604051806040016040528060018152602001603160f81b81525090610a595760405162461bcd60e51b815260040161043d9190611288565b50836001600160a01b0316856001600160a01b031614610a7e57610a7e848685610ef0565b6001600160a01b03841660009081526020819052604081205490610aa28585610fac565b9050610aae86826110ab565b6040518581526001600160a01b038716906000907fddf252ad1be2c89b69c2b068fc378daa952ba7f163c4a11628f55a4df523b3ef9060200160405180910390a3856001600160a01b0316876001600160a01b03167f2f00e3cdd69a77be7ed215ec7b2a36784dd158f921fca79ac29deffa353fe6ee8787604051610b3d929190918252602082015260400190565b60405180910390a3501595945050505050565b3360008181526007602090815260408083206001600160a01b0387168085529252909120839055906001600160a01b03167fda919360433220e13b51e8c211e490d148e61a3bd53de8c097194e458b97f3e1610bb46008546001600160a01b031690565b604080516001600160a01b039092168252602082018690520160405180910390a35050565b60405162461bcd60e51b815260206004820152601760248201527f414c4c4f57414e43455f4e4f545f535550504f52544544000000000000000000604482015260009060640161043d565b6009546040805180820190915260018152603160f81b6020820152906001600160a01b03163314610c685760405162461bcd60e51b815260040161043d9190611288565b506000610c758383610fac565b9050610c8184826110e5565b6040518381526000906001600160a01b038616907fddf252ad1be2c89b69c2b068fc378daa952ba7f163c4a11628f55a4df523b3ef9060200160405180910390a360408051848152602081018490526001600160a01b038616917f49995e5dd6158cf69ad3e9777c46755a1a826a446c6416992167462dad033b2a910160405180910390a250505050565b6001600160a01b0383811660008181526007602090815260408083208786168085529083529281902086905560085481519516855290840185905290927fda919360433220e13b51e8c211e490d148e61a3bd53de8c097194e458b97f3e191015b60405180910390a3505050565b6000821580610d87575081155b15610d945750600061070f565b81610dac60026b033b2e3c9fd0803ce800000061174d565b610db89060001961176f565b610dc2919061174d565b831115610e115760405162461bcd60e51b815260206004820152601c60248201527f4d4154485f4d554c5449504c49434154494f4e5f4f564552464c4f5700000000604482015260640161043d565b6b033b2e3c9fd0803ce8000000610e2960028261174d565b610e338486611782565b610e3d91906115e4565b6109d8919061174d565b60007f8b73c3c69bb8fe3d512ecc4cf759cc79239f7b179b0ffacaa9a75d522b39400f610e7261111b565b805160209182012060408051808201825260018152603160f81b90840152805192830193909352918101919091527fc89efdaa54c0f20c7adf612882df0950f5a951637e0307cdcb4c672f298b8bc660608201524660808201523060a082015260c00160405160208183030381529060405280519060200120905090565b6001600160a01b038084166000908152600760209081526040808320938616835292905290812054610f2390839061176f565b6001600160a01b038086166000818152600760209081526040808320948916808452949091529020839055919250907fda919360433220e13b51e8c211e490d148e61a3bd53de8c097194e458b97f3e1610f856008546001600160a01b031690565b604080516001600160a01b039092168252602082018690520160405180910390a350505050565b600081600003610ff65760405162461bcd60e51b81526020600482015260156024820152744d4154485f4449564953494f4e5f42595f5a45524f60581b604482015260640161043d565b600061100360028461174d565b90506b033b2e3c9fd0803ce800000061101e8260001961176f565b611028919061174d565b8411156110775760405162461bcd60e51b815260206004820152601c60248201527f4d4154485f4d554c5449504c49434154494f4e5f4f564552464c4f5700000000604482015260640161043d565b828161108f6b033b2e3c9fd0803ce800000087611782565b61109991906115e4565b6110a3919061174d565b949350505050565b6001600160a01b0382166110d55760405163ec442f0560e01b81526000600482015260240161043d565b6110e160008383611125565b5050565b6001600160a01b03821661110f57604051634b637e8f60e11b81526000600482015260240161043d565b6110e182600083611125565b60606106f061036b565b6001600160a01b03831661115057806002600082825461114591906115e4565b909155506111c29050565b6001600160a01b038316600090815260208190526040902054818110156111a35760405163391434e360e21b81526001600160a01b0385166004820152602481018290526044810183905260640161043d565b6001600160a01b03841660009081526020819052604090209082900390555b6001600160a01b0382166111de576002805482900390556111fd565b6001600160a01b03821660009081526020819052604090208054820190555b816001600160a01b0316836001600160a01b03167fddf252ad1be2c89b69c2b068fc378daa952ba7f163c4a11628f55a4df523b3ef83604051610d6d91815260200190565b6000815180845260005b818110156112685760208185018101518683018201520161124c565b506000602082860101526020601f19601f83011685010191505092915050565b6020815260006109d86020830184611242565b6001600160a01b03811681146112b057600080fd5b50565b600080604083850312156112c657600080fd5b82356112d18161129b565b946020939093013593505050565b6000602082840312156112f157600080fd5b81356109d88161129b565b600080600080600080600060e0888a03121561131757600080fd5b87356113228161129b565b965060208801356113328161129b565b95506040880135945060608801359350608088013560ff8116811461135657600080fd5b9699959850939692959460a0840135945060c09093013592915050565b634e487b7160e01b600052604160045260246000fd5b600082601f83011261139a57600080fd5b813567ffffffffffffffff808211156113b5576113b5611373565b604051601f8301601f19908116603f011681019082821181831017156113dd576113dd611373565b816040528381528660208588010111156113f657600080fd5b836020870160208301376000602085830101528094505050505092915050565b6000806000806080858703121561142c57600080fd5b84356114378161129b565b935060208501356114478161129b565b9250604085013567ffffffffffffffff8082111561146457600080fd5b61147088838901611389565b9350606087013591508082111561148657600080fd5b5061149387828801611389565b91505092959194509250565b6000806000606084860312156114b457600080fd5b83356114bf8161129b565b925060208401356114cf8161129b565b929592945050506040919091013590565b600080604083850312156114f357600080fd5b82356114fe8161129b565b9150602083013561150e8161129b565b809150509250929050565b6000806000806080858703121561152f57600080fd5b843561153a8161129b565b9350602085013561154a8161129b565b93969395505050506040820135916060013590565b60008060006060848603121561157457600080fd5b833561157f8161129b565b95602085013595506040909401359392505050565b600181811c908216806115a857607f821691505b6020821081036115c857634e487b7160e01b600052602260045260246000fd5b50919050565b634e487b7160e01b600052601160045260246000fd5b8082018082111561070f5761070f6115ce565b60006020828403121561160957600080fd5b5051919050565b601f82111561165a57600081815260208120601f850160051c810160208610156116375750805b601f850160051c820191505b8181101561165657828155600101611643565b5050505b505050565b815167ffffffffffffffff81111561167957611679611373565b61168d816116878454611594565b84611610565b602080601f8311600181146116c257600084156116aa5750858301515b600019600386901b1c1916600185901b178555611656565b600085815260208120601f198616915b828110156116f1578886015182559484019460019091019084016116d2565b508582101561170f5787850151600019600388901b60f8161c191681555b5050505050600190811b01905550565b6040815260006117326040830185611242565b82810360208401526117448185611242565b95945050505050565b60008261176a57634e487b7160e01b600052601260045260246000fd5b500490565b8181038181111561070f5761070f6115ce565b808202811582820484141761070f5761070f6115ce56fea26469706673582212205c0450fedc1fd507d57bc81c1a12f2c780365b004aee23d3f1d40f39d23423fa64736f6c63430008150033","linkReferences":{}},"methodIdentifiers":{"DELEGATION_WITH_SIG_TYPEHASH()":"f3bfc738","DOMAIN_SEPARATOR()":"3644e515","EIP712_REVISION()":"78160376","allowance(address,address)":"dd62ed3e","approve(address,uint256)":"095ea7b3","approveDelegation(address,uint256)":"c04a8a10","balanceOf(address)":"70a08231","borrowAllowance(address,address)":"6bd76d24","burn(address,uint256,uint256)":"f5298aca","decimals()":"313ce567","delegationWithSig(address,address,uint256,uint256,uint8,bytes32,bytes32)":"0b52d558","getScaledUserBalanceAndSupply(address)":"0afbcdc9","initialize(address,address,string,string)":"2016a0d2","mint(address,address,uint256,uint256)":"b3f1c93d","name()":"06fdde03","nonces(address)":"7ecebe00","scaledBalanceOf(address)":"1da24f3e","scaledTotalSupply()":"b1bf962d","symbol()":"95d89b41","totalSupply()":"18160ddd","transfer(address,uint256)":"a9059cbb","transferFrom(address,address,uint256)":"23b872dd"},"id":6}