{"abi":[{"type":"constructor","inputs":[{"name":"_pkmToken","type":"address","internalType":"address"}],"stateMutability":"nonpayable"},{"type":"function","name":"approve","inputs":[{"name":"to","type":"address","internalType":"address"},{"name":"tokenId","type":"uint256","internalType":"uint256"}],"outputs":[],"stateMutability":"nonpayable"},{"type":"function","name":"balanceOf","inputs":[{"name":"owner","type":"address","internalType":"address"}],"outputs":[{"name":"","type":"uint256","internalType":"uint256"}],"stateMutability":"view"},{"type":"function","name":"buyNFTWithSignature","inputs":[{"name":"tokenId","type":"uint256","internalType":"uint256"},{"name":"price","type":"uint256","internalType":"uint256"},{"name":"seller","type":"address","internalType":"address"},{"name":"buyer","type":"address","internalType":"address"},{"name":"signature","type":"bytes","internalType":"bytes"}],"outputs":[],"stateMutability":"nonpayable"},{"type":"function","name":"createPokemon","inputs":[{"name":"name","type":"string","internalType":"string"},{"name":"trait","type":"string","internalType":"string"},{"name":"imageURL","type":"string","internalType":"string"}],"outputs":[],"stateMutability":"nonpayable"},{"type":"function","name":"getApproved","inputs":[{"name":"tokenId","type":"uint256","internalType":"uint256"}],"outputs":[{"name":"","type":"address","internalType":"address"}],"stateMutability":"view"},{"type":"function","name":"isApprovedForAll","inputs":[{"name":"owner","type":"address","internalType":"address"},{"name":"operator","type":"address","internalType":"address"}],"outputs":[{"name":"","type":"bool","internalType":"bool"}],"stateMutability":"view"},{"type":"function","name":"name","inputs":[],"outputs":[{"name":"","type":"string","internalType":"string"}],"stateMutability":"view"},{"type":"function","name":"nonces","inputs":[{"name":"owner","type":"address","internalType":"address"}],"outputs":[{"name":"","type":"uint256","internalType":"uint256"}],"stateMutability":"view"},{"type":"function","name":"owner","inputs":[],"outputs":[{"name":"","type":"address","internalType":"address"}],"stateMutability":"view"},{"type":"function","name":"ownerOf","inputs":[{"name":"tokenId","type":"uint256","internalType":"uint256"}],"outputs":[{"name":"","type":"address","internalType":"address"}],"stateMutability":"view"},{"type":"function","name":"pkmToken","inputs":[],"outputs":[{"name":"","type":"address","internalType":"contract IERC20"}],"stateMutability":"view"},{"type":"function","name":"pokemons","inputs":[{"name":"","type":"uint256","internalType":"uint256"}],"outputs":[{"name":"name","type":"string","internalType":"string"},{"name":"level","type":"uint256","internalType":"uint256"},{"name":"trait","type":"string","internalType":"string"},{"name":"imageURL","type":"string","internalType":"string"}],"stateMutability":"view"},{"type":"function","name":"renounceOwnership","inputs":[],"outputs":[],"stateMutability":"nonpayable"},{"type":"function","name":"safeTransferFrom","inputs":[{"name":"from","type":"address","internalType":"address"},{"name":"to","type":"address","internalType":"address"},{"name":"tokenId","type":"uint256","internalType":"uint256"}],"outputs":[],"stateMutability":"nonpayable"},{"type":"function","name":"safeTransferFrom","inputs":[{"name":"from","type":"address","internalType":"address"},{"name":"to","type":"address","internalType":"address"},{"name":"tokenId","type":"uint256","internalType":"uint256"},{"name":"data","type":"bytes","internalType":"bytes"}],"outputs":[],"stateMutability":"nonpayable"},{"type":"function","name":"setApprovalForAll","inputs":[{"name":"operator","type":"address","internalType":"address"},{"name":"approved","type":"bool","internalType":"bool"}],"outputs":[],"stateMutability":"nonpayable"},{"type":"function","name":"setTokenContract","inputs":[{"name":"_pkmToken","type":"address","internalType":"address"}],"outputs":[],"stateMutability":"nonpayable"},{"type":"function","name":"supportsInterface","inputs":[{"name":"interfaceId","type":"bytes4","internalType":"bytes4"}],"outputs":[{"name":"","type":"bool","internalType":"bool"}],"stateMutability":"view"},{"type":"function","name":"symbol","inputs":[],"outputs":[{"name":"","type":"string","internalType":"string"}],"stateMutability":"view"},{"type":"function","name":"tokenURI","inputs":[{"name":"tokenId","type":"uint256","internalType":"uint256"}],"outputs":[{"name":"","type":"string","internalType":"string"}],"stateMutability":"view"},{"type":"function","name":"transferFrom","inputs":[{"name":"from","type":"address","internalType":"address"},{"name":"to","type":"address","internalType":"address"},{"name":"tokenId","type":"uint256","internalType":"uint256"}],"outputs":[],"stateMutability":"nonpayable"},{"type":"function","name":"transferOwnership","inputs":[{"name":"newOwner","type":"address","internalType":"address"}],"outputs":[],"stateMutability":"nonpayable"},{"type":"function","name":"usedNonces","inputs":[{"name":"","type":"bytes32","internalType":"bytes32"}],"outputs":[{"name":"","type":"bool","internalType":"bool"}],"stateMutability":"view"},{"type":"event","name":"Approval","inputs":[{"name":"owner","type":"address","indexed":true,"internalType":"address"},{"name":"approved","type":"address","indexed":true,"internalType":"address"},{"name":"tokenId","type":"uint256","indexed":true,"internalType":"uint256"}],"anonymous":false},{"type":"event","name":"ApprovalForAll","inputs":[{"name":"owner","type":"address","indexed":true,"internalType":"address"},{"name":"operator","type":"address","indexed":true,"internalType":"address"},{"name":"approved","type":"bool","indexed":false,"internalType":"bool"}],"anonymous":false},{"type":"event","name":"NFTCreated","inputs":[{"name":"tokenId","type":"uint256","indexed":true,"internalType":"uint256"},{"name":"creator","type":"address","indexed":true,"internalType":"address"},{"name":"name","type":"string","indexed":false,"internalType":"string"}],"anonymous":false},{"type":"event","name":"NFTPurchased","inputs":[{"name":"tokenId","type":"uint256","indexed":true,"internalType":"uint256"},{"name":"buyer","type":"address","indexed":true,"internalType":"address"},{"name":"seller","type":"address","indexed":true,"internalType":"address"},{"name":"price","type":"uint256","indexed":false,"internalType":"uint256"}],"anonymous":false},{"type":"event","name":"OwnershipTransferred","inputs":[{"name":"previousOwner","type":"address","indexed":true,"internalType":"address"},{"name":"newOwner","type":"address","indexed":true,"internalType":"address"}],"anonymous":false},{"type":"event","name":"Transfer","inputs":[{"name":"from","type":"address","indexed":true,"internalType":"address"},{"name":"to","type":"address","indexed":true,"internalType":"address"},{"name":"tokenId","type":"uint256","indexed":true,"internalType":"uint256"}],"anonymous":false},{"type":"error","name":"ERC721IncorrectOwner","inputs":[{"name":"sender","type":"address","internalType":"address"},{"name":"tokenId","type":"uint256","internalType":"uint256"},{"name":"owner","type":"address","internalType":"address"}]},{"type":"error","name":"ERC721InsufficientApproval","inputs":[{"name":"operator","type":"address","internalType":"address"},{"name":"tokenId","type":"uint256","internalType":"uint256"}]},{"type":"error","name":"ERC721InvalidApprover","inputs":[{"name":"approver","type":"address","internalType":"address"}]},{"type":"error","name":"ERC721InvalidOperator","inputs":[{"name":"operator","type":"address","internalType":"address"}]},{"type":"error","name":"ERC721InvalidOwner","inputs":[{"name":"owner","type":"address","internalType":"address"}]},{"type":"error","name":"ERC721InvalidReceiver","inputs":[{"name":"receiver","type":"address","internalType":"address"}]},{"type":"error","name":"ERC721InvalidSender","inputs":[{"name":"sender","type":"address","internalType":"address"}]},{"type":"error","name":"ERC721NonexistentToken","inputs":[{"name":"tokenId","type":"uint256","internalType":"uint256"}]},{"type":"error","name":"InvalidAccountNonce","inputs":[{"name":"account","type":"address","internalType":"address"},{"name":"currentNonce","type":"uint256","internalType":"uint256"}]},{"type":"error","name":"OwnableInvalidOwner","inputs":[{"name":"owner","type":"address","internalType":"address"}]},{"type":"error","name":"OwnableUnauthorizedAccount","inputs":[{"name":"account","type":"address","internalType":"address"}]}],"bytecode":{"object":"0x60806040523480156200001157600080fd5b5060405162001cb238038062001cb2833981016040819052620000349162000148565b33604051806040016040528060078152602001662837b5b2b6b7b760c91b815250604051806040016040528060048152602001632825a6a760e11b81525081600090816200008391906200021f565b5060016200009282826200021f565b5050506001600160a01b038116620000c457604051631e4fbdf760e01b81526000600482015260240160405180910390fd5b620000cf81620000f6565b50600b80546001600160a01b0319166001600160a01b0392909216919091179055620002eb565b600680546001600160a01b038381166001600160a01b0319831681179093556040519116919082907f8be0079c531659141344cd1fd0a4f28419497f9722a3daafe3b4186f6b6457e090600090a35050565b6000602082840312156200015b57600080fd5b81516001600160a01b03811681146200017357600080fd5b9392505050565b634e487b7160e01b600052604160045260246000fd5b600181811c90821680620001a557607f821691505b602082108103620001c657634e487b7160e01b600052602260045260246000fd5b50919050565b601f8211156200021a57600081815260208120601f850160051c81016020861015620001f55750805b601f850160051c820191505b81811015620002165782815560010162000201565b5050505b505050565b81516001600160401b038111156200023b576200023b6200017a565b62000253816200024c845462000190565b84620001cc565b602080601f8311600181146200028b5760008415620002725750858301515b600019600386901b1c1916600185901b17855562000216565b600085815260208120601f198616915b82811015620002bc578886015182559484019460019091019084016200029b565b5085821015620002db5787850151600019600388901b60f8161c191681555b5050505050600190811b01905550565b6119b780620002fb6000396000f3fe608060405234801561001057600080fd5b506004361061014d5760003560e01c8063715018a6116100c3578063b88d4fde1161007c578063b88d4fde146102e2578063bbcd5bbe146102f5578063c87b56dd14610308578063e985e9c51461031b578063f2fde38b1461032e578063feb617241461034157600080fd5b8063715018a6146102625780637ecebe001461026a57806385831079146102935780638da5cb5b146102b657806395d89b41146102c7578063a22cb465146102cf57600080fd5b806323b872dd1161011557806323b872dd146101e25780632be6ef76146101f557806342842e0e146102085780634b622d481461021b5780636352211e1461022e57806370a082311461024157600080fd5b806301ffc9a71461015257806304a6e9d81461017a57806306fdde031461018f578063081812fc146101a4578063095ea7b3146101cf575b600080fd5b61016561016036600461136f565b610364565b60405190151581526020015b60405180910390f35b61018d61018836600461144b565b6103b6565b005b6101976105c0565b604051610171919061150d565b6101b76101b2366004611520565b610652565b6040516001600160a01b039091168152602001610171565b61018d6101dd366004611539565b61067b565b61018d6101f0366004611563565b61068a565b61018d61020336600461159f565b610715565b61018d610216366004611563565b610800565b600b546101b7906001600160a01b031681565b6101b761023c366004611520565b610820565b61025461024f366004611627565b61082b565b604051908152602001610171565b61018d610873565b610254610278366004611627565b6001600160a01b031660009081526007602052604090205490565b6102a66102a1366004611520565b610887565b6040516101719493929190611642565b6006546001600160a01b03166101b7565b610197610a47565b61018d6102dd36600461169a565b610a56565b61018d6102f03660046116d1565b610a61565b61018d610303366004611627565b610a78565b610197610316366004611520565b610aa2565b610165610329366004611739565b610b17565b61018d61033c366004611627565b610b45565b61016561034f366004611520565b600a6020526000908152604090205460ff1681565b60006001600160e01b031982166380ac58cd60e01b148061039557506001600160e01b03198216635b5e139f60e01b145b806103b057506301ffc9a760e01b6001600160e01b03198316145b92915050565b826001600160a01b03166103c986610820565b6001600160a01b0316146104245760405162461bcd60e51b815260206004820152601760248201527f53656c6c6572206973206e6f7420746865206f776e657200000000000000000060448201526064015b60405180910390fd5b600085858585610451886001600160a01b0316600090815260076020526040902080546001810190915590565b6040805160208101969096528501939093526bffffffffffffffffffffffff19606092831b811683860152911b166074830152608882015260a80160408051808303601f19018152908290528051602090910120600b546323b872dd60e01b83526001600160a01b03868116600485015287811660248501526044840189905291935016906323b872dd906064016020604051808303816000875af11580156104fe573d6000803e3d6000fd5b505050506040513d601f19601f82011682018060405250810190610522919061176c565b61055f5760405162461bcd60e51b815260206004820152600e60248201526d14185e5b595b9d0819985a5b195960921b604482015260640161041b565b61056a848488610b83565b836001600160a01b0316836001600160a01b0316877fef1fb2bd31f5ed737e6054243d9b5eacd3af967f35af45e8fb844ca6dbbe98f9886040516105b091815260200190565b60405180910390a4505050505050565b6060600080546105cf90611789565b80601f01602080910402602001604051908101604052809291908181526020018280546105fb90611789565b80156106485780601f1061061d57610100808354040283529160200191610648565b820191906000526020600020905b81548152906001019060200180831161062b57829003601f168201915b5050505050905090565b600061065d82610c33565b506000828152600460205260409020546001600160a01b03166103b0565b610686828233610c6c565b5050565b6001600160a01b0382166106b457604051633250574960e11b81526000600482015260240161041b565b60006106c1838333610c79565b9050836001600160a01b0316816001600160a01b03161461070f576040516364283d7b60e01b81526001600160a01b038086166004830152602482018490528216604482015260640161041b565b50505050565b61071d610d72565b600854604080516080810182528581526001602080830191909152818301869052606082018590526000848152600990915291909120815181906107619082611811565b5060208201516001820155604082015160028201906107809082611811565b50606082015160038201906107959082611811565b509050506107a33382610d9f565b600880549060006107b3836118d1565b9190505550336001600160a01b0316817f97e133605a9dc1efc14cb96df12d8f7f4904bc8c5832b0fb80df5d635e0e68d7866040516107f2919061150d565b60405180910390a350505050565b61081b83838360405180602001604052806000815250610a61565b505050565b60006103b082610c33565b60006001600160a01b038216610857576040516322718ad960e21b81526000600482015260240161041b565b506001600160a01b031660009081526003602052604090205490565b61087b610d72565b6108856000610e04565b565b6009602052600090815260409020805481906108a290611789565b80601f01602080910402602001604051908101604052809291908181526020018280546108ce90611789565b801561091b5780601f106108f05761010080835404028352916020019161091b565b820191906000526020600020905b8154815290600101906020018083116108fe57829003601f168201915b50505050509080600101549080600201805461093690611789565b80601f016020809104026020016040519081016040528092919081815260200182805461096290611789565b80156109af5780601f10610984576101008083540402835291602001916109af565b820191906000526020600020905b81548152906001019060200180831161099257829003601f168201915b5050505050908060030180546109c490611789565b80601f01602080910402602001604051908101604052809291908181526020018280546109f090611789565b8015610a3d5780601f10610a1257610100808354040283529160200191610a3d565b820191906000526020600020905b815481529060010190602001808311610a2057829003601f168201915b5050505050905084565b6060600180546105cf90611789565b610686338383610e56565b610a6c84848461068a565b61070f84848484610ef5565b610a80610d72565b600b80546001600160a01b0319166001600160a01b0392909216919091179055565b6060610aad82610c33565b506000610ac560408051602081019091526000815290565b90506000815111610ae55760405180602001604052806000815250610b10565b80610aef8461101e565b604051602001610b009291906118f8565b6040516020818303038152906040525b9392505050565b6001600160a01b03918216600090815260056020908152604080832093909416825291909152205460ff1690565b610b4d610d72565b6001600160a01b038116610b7757604051631e4fbdf760e01b81526000600482015260240161041b565b610b8081610e04565b50565b6001600160a01b038216610bad57604051633250574960e11b81526000600482015260240161041b565b6000610bbb83836000610c79565b90506001600160a01b038116610be757604051637e27328960e01b81526004810183905260240161041b565b836001600160a01b0316816001600160a01b03161461070f576040516364283d7b60e01b81526001600160a01b038086166004830152602482018490528216604482015260640161041b565b6000818152600260205260408120546001600160a01b0316806103b057604051637e27328960e01b81526004810184905260240161041b565b61081b83838360016110b1565b6000828152600260205260408120546001600160a01b0390811690831615610ca657610ca68184866111b7565b6001600160a01b03811615610ce457610cc36000856000806110b1565b6001600160a01b038116600090815260036020526040902080546000190190555b6001600160a01b03851615610d13576001600160a01b0385166000908152600360205260409020805460010190555b60008481526002602052604080822080546001600160a01b0319166001600160a01b0389811691821790925591518793918516917fddf252ad1be2c89b69c2b068fc378daa952ba7f163c4a11628f55a4df523b3ef91a4949350505050565b6006546001600160a01b031633146108855760405163118cdaa760e01b815233600482015260240161041b565b6001600160a01b038216610dc957604051633250574960e11b81526000600482015260240161041b565b6000610dd783836000610c79565b90506001600160a01b0381161561081b576040516339e3563760e11b81526000600482015260240161041b565b600680546001600160a01b038381166001600160a01b0319831681179093556040519116919082907f8be0079c531659141344cd1fd0a4f28419497f9722a3daafe3b4186f6b6457e090600090a35050565b6001600160a01b038216610e8857604051630b61174360e31b81526001600160a01b038316600482015260240161041b565b6001600160a01b03838116600081815260056020908152604080832094871680845294825291829020805460ff191686151590811790915591519182527f17307eab39ab6107e8899845ad3d59bd9653f200f220920489ca2b5937696c31910160405180910390a3505050565b6001600160a01b0383163b1561070f57604051630a85bd0160e11b81526001600160a01b0384169063150b7a0290610f37903390889087908790600401611927565b6020604051808303816000875af1925050508015610f72575060408051601f3d908101601f19168201909252610f6f91810190611964565b60015b610fdb573d808015610fa0576040519150601f19603f3d011682016040523d82523d6000602084013e610fa5565b606091505b508051600003610fd357604051633250574960e11b81526001600160a01b038516600482015260240161041b565b805181602001fd5b6001600160e01b03198116630a85bd0160e11b1461101757604051633250574960e11b81526001600160a01b038516600482015260240161041b565b5050505050565b6060600061102b8361121b565b600101905060008167ffffffffffffffff81111561104b5761104b6113a8565b6040519080825280601f01601f191660200182016040528015611075576020820181803683370190505b5090508181016020015b600019016f181899199a1a9b1b9c1cb0b131b232b360811b600a86061a8153600a850494508461107f57509392505050565b80806110c557506001600160a01b03821615155b156111875760006110d584610c33565b90506001600160a01b038316158015906111015750826001600160a01b0316816001600160a01b031614155b801561111457506111128184610b17565b155b1561113d5760405163a9fbf51f60e01b81526001600160a01b038416600482015260240161041b565b81156111855783856001600160a01b0316826001600160a01b03167f8c5be1e5ebec7d5bd14f71427d1e84f3dd0314c0f7b2291e5b200ac8c7c3b92560405160405180910390a45b505b5050600090815260046020526040902080546001600160a01b0319166001600160a01b0392909216919091179055565b6111c28383836112f3565b61081b576001600160a01b0383166111f057604051637e27328960e01b81526004810182905260240161041b565b60405163177e802f60e01b81526001600160a01b03831660048201526024810182905260440161041b565b60008072184f03e93ff9f4daa797ed6e38ed64bf6a1f0160401b831061125a5772184f03e93ff9f4daa797ed6e38ed64bf6a1f0160401b830492506040015b6d04ee2d6d415b85acef81000000008310611286576d04ee2d6d415b85acef8100000000830492506020015b662386f26fc1000083106112a457662386f26fc10000830492506010015b6305f5e10083106112bc576305f5e100830492506008015b61271083106112d057612710830492506004015b606483106112e2576064830492506002015b600a83106103b05760010192915050565b60006001600160a01b038316158015906113515750826001600160a01b0316846001600160a01b0316148061132d575061132d8484610b17565b8061135157506000828152600460205260409020546001600160a01b038481169116145b949350505050565b6001600160e01b031981168114610b8057600080fd5b60006020828403121561138157600080fd5b8135610b1081611359565b80356001600160a01b03811681146113a357600080fd5b919050565b634e487b7160e01b600052604160045260246000fd5b600082601f8301126113cf57600080fd5b813567ffffffffffffffff808211156113ea576113ea6113a8565b604051601f8301601f19908116603f01168101908282118183101715611412576114126113a8565b8160405283815286602085880101111561142b57600080fd5b836020870160208301376000602085830101528094505050505092915050565b600080600080600060a0868803121561146357600080fd5b853594506020860135935061147a6040870161138c565b92506114886060870161138c565b9150608086013567ffffffffffffffff8111156114a457600080fd5b6114b0888289016113be565b9150509295509295909350565b60005b838110156114d85781810151838201526020016114c0565b50506000910152565b600081518084526114f98160208601602086016114bd565b601f01601f19169290920160200192915050565b602081526000610b1060208301846114e1565b60006020828403121561153257600080fd5b5035919050565b6000806040838503121561154c57600080fd5b6115558361138c565b946020939093013593505050565b60008060006060848603121561157857600080fd5b6115818461138c565b925061158f6020850161138c565b9150604084013590509250925092565b6000806000606084860312156115b457600080fd5b833567ffffffffffffffff808211156115cc57600080fd5b6115d8878388016113be565b945060208601359150808211156115ee57600080fd5b6115fa878388016113be565b9350604086013591508082111561161057600080fd5b5061161d868287016113be565b9150509250925092565b60006020828403121561163957600080fd5b610b108261138c565b60808152600061165560808301876114e1565b856020840152828103604084015261166d81866114e1565b9050828103606084015261168181856114e1565b979650505050505050565b8015158114610b8057600080fd5b600080604083850312156116ad57600080fd5b6116b68361138c565b915060208301356116c68161168c565b809150509250929050565b600080600080608085870312156116e757600080fd5b6116f08561138c565b93506116fe6020860161138c565b925060408501359150606085013567ffffffffffffffff81111561172157600080fd5b61172d878288016113be565b91505092959194509250565b6000806040838503121561174c57600080fd5b6117558361138c565b91506117636020840161138c565b90509250929050565b60006020828403121561177e57600080fd5b8151610b108161168c565b600181811c9082168061179d57607f821691505b6020821081036117bd57634e487b7160e01b600052602260045260246000fd5b50919050565b601f82111561081b57600081815260208120601f850160051c810160208610156117ea5750805b601f850160051c820191505b81811015611809578281556001016117f6565b505050505050565b815167ffffffffffffffff81111561182b5761182b6113a8565b61183f816118398454611789565b846117c3565b602080601f831160018114611874576000841561185c5750858301515b600019600386901b1c1916600185901b178555611809565b600085815260208120601f198616915b828110156118a357888601518255948401946001909101908401611884565b50858210156118c15787850151600019600388901b60f8161c191681555b5050505050600190811b01905550565b6000600182016118f157634e487b7160e01b600052601160045260246000fd5b5060010190565b6000835161190a8184602088016114bd565b83519083019061191e8183602088016114bd565b01949350505050565b6001600160a01b038581168252841660208201526040810183905260806060820181905260009061195a908301846114e1565b9695505050505050565b60006020828403121561197657600080fd5b8151610b108161135956fea264697066735822122034c563a9d5edafa3d87901290a3960b80744e03436ded91096a7ce315981b6af64736f6c63430008150033","linkReferences":{}},"methodIdentifiers":{"approve(address,uint256)":"095ea7b3","balanceOf(address)":"70a08231","buyNFTWithSignature(uint256,uint256,address,address,bytes)":"04a6e9d8","createPokemon(string,string,string)":"2be6ef76","getApproved(uint256)":"081812fc","isApprovedForAll(address,address)":"e985e9c5","name()":"06fdde03","nonces(address)":"7ecebe00","owner()":"8da5cb5b","ownerOf(uint256)":"6352211e","pkmToken()":"4b622d48","pokemons(uint256)":"85831079","renounceOwnership()":"715018a6","safeTransferFrom(address,address,uint256)":"42842e0e","safeTransferFrom(address,address,uint256,bytes)":"b88d4fde","setApprovalForAll(address,bool)":"a22cb465","setTokenContract(address)":"bbcd5bbe","supportsInterface(bytes4)":"01ffc9a7","symbol()":"95d89b41","tokenURI(uint256)":"c87b56dd","transferFrom(address,address,uint256)":"23b872dd","transferOwnership(address)":"f2fde38b","usedNonces(bytes32)":"feb61724"},"id":2}