{"abi":[{"type":"function","name":"ACL_ADMIN_CANNOT_BE_ZERO","inputs":[],"outputs":[{"name":"","type":"string","internalType":"string"}],"stateMutability":"view"},{"type":"function","name":"ADDRESSES_PROVIDER_ALREADY_ADDED","inputs":[],"outputs":[{"name":"","type":"string","internalType":"string"}],"stateMutability":"view"},{"type":"function","name":"ADDRESSES_PROVIDER_NOT_REGISTERED","inputs":[],"outputs":[{"name":"","type":"string","internalType":"string"}],"stateMutability":"view"},{"type":"function","name":"AMOUNT_BIGGER_THAN_MAX_LOAN_SIZE_STABLE","inputs":[],"outputs":[{"name":"","type":"string","internalType":"string"}],"stateMutability":"view"},{"type":"function","name":"ASSET_NOT_BORROWABLE_IN_ISOLATION","inputs":[],"outputs":[{"name":"","type":"string","internalType":"string"}],"stateMutability":"view"},{"type":"function","name":"ASSET_NOT_LISTED","inputs":[],"outputs":[{"name":"","type":"string","internalType":"string"}],"stateMutability":"view"},{"type":"function","name":"BORROWING_NOT_ENABLED","inputs":[],"outputs":[{"name":"","type":"string","internalType":"string"}],"stateMutability":"view"},{"type":"function","name":"BORROW_CAP_EXCEEDED","inputs":[],"outputs":[{"name":"","type":"string","internalType":"string"}],"stateMutability":"view"},{"type":"function","name":"BRIDGE_PROTOCOL_FEE_INVALID","inputs":[],"outputs":[{"name":"","type":"string","internalType":"string"}],"stateMutability":"view"},{"type":"function","name":"CALLER_MUST_BE_POOL","inputs":[],"outputs":[{"name":"","type":"string","internalType":"string"}],"stateMutability":"view"},{"type":"function","name":"CALLER_NOT_ASSET_LISTING_OR_POOL_ADMIN","inputs":[],"outputs":[{"name":"","type":"string","internalType":"string"}],"stateMutability":"view"},{"type":"function","name":"CALLER_NOT_ATOKEN","inputs":[],"outputs":[{"name":"","type":"string","internalType":"string"}],"stateMutability":"view"},{"type":"function","name":"CALLER_NOT_BRIDGE","inputs":[],"outputs":[{"name":"","type":"string","internalType":"string"}],"stateMutability":"view"},{"type":"function","name":"CALLER_NOT_EMERGENCY_ADMIN","inputs":[],"outputs":[{"name":"","type":"string","internalType":"string"}],"stateMutability":"view"},{"type":"function","name":"CALLER_NOT_POOL_ADMIN","inputs":[],"outputs":[{"name":"","type":"string","internalType":"string"}],"stateMutability":"view"},{"type":"function","name":"CALLER_NOT_POOL_CONFIGURATOR","inputs":[],"outputs":[{"name":"","type":"string","internalType":"string"}],"stateMutability":"view"},{"type":"function","name":"CALLER_NOT_POOL_OR_EMERGENCY_ADMIN","inputs":[],"outputs":[{"name":"","type":"string","internalType":"string"}],"stateMutability":"view"},{"type":"function","name":"CALLER_NOT_RISK_OR_POOL_ADMIN","inputs":[],"outputs":[{"name":"","type":"string","internalType":"string"}],"stateMutability":"view"},{"type":"function","name":"COLLATERAL_BALANCE_IS_ZERO","inputs":[],"outputs":[{"name":"","type":"string","internalType":"string"}],"stateMutability":"view"},{"type":"function","name":"COLLATERAL_CANNOT_BE_LIQUIDATED","inputs":[],"outputs":[{"name":"","type":"string","internalType":"string"}],"stateMutability":"view"},{"type":"function","name":"COLLATERAL_CANNOT_COVER_NEW_BORROW","inputs":[],"outputs":[{"name":"","type":"string","internalType":"string"}],"stateMutability":"view"},{"type":"function","name":"COLLATERAL_SAME_AS_BORROWING_CURRENCY","inputs":[],"outputs":[{"name":"","type":"string","internalType":"string"}],"stateMutability":"view"},{"type":"function","name":"DEBT_CEILING_EXCEEDED","inputs":[],"outputs":[{"name":"","type":"string","internalType":"string"}],"stateMutability":"view"},{"type":"function","name":"DEBT_CEILING_NOT_ZERO","inputs":[],"outputs":[{"name":"","type":"string","internalType":"string"}],"stateMutability":"view"},{"type":"function","name":"EMODE_CATEGORY_RESERVED","inputs":[],"outputs":[{"name":"","type":"string","internalType":"string"}],"stateMutability":"view"},{"type":"function","name":"FLASHLOAN_DISABLED","inputs":[],"outputs":[{"name":"","type":"string","internalType":"string"}],"stateMutability":"view"},{"type":"function","name":"FLASHLOAN_PREMIUM_INVALID","inputs":[],"outputs":[{"name":"","type":"string","internalType":"string"}],"stateMutability":"view"},{"type":"function","name":"HEALTH_FACTOR_LOWER_THAN_LIQUIDATION_THRESHOLD","inputs":[],"outputs":[{"name":"","type":"string","internalType":"string"}],"stateMutability":"view"},{"type":"function","name":"HEALTH_FACTOR_NOT_BELOW_THRESHOLD","inputs":[],"outputs":[{"name":"","type":"string","internalType":"string"}],"stateMutability":"view"},{"type":"function","name":"INCONSISTENT_EMODE_CATEGORY","inputs":[],"outputs":[{"name":"","type":"string","internalType":"string"}],"stateMutability":"view"},{"type":"function","name":"INCONSISTENT_FLASHLOAN_PARAMS","inputs":[],"outputs":[{"name":"","type":"string","internalType":"string"}],"stateMutability":"view"},{"type":"function","name":"INCONSISTENT_PARAMS_LENGTH","inputs":[],"outputs":[{"name":"","type":"string","internalType":"string"}],"stateMutability":"view"},{"type":"function","name":"INTEREST_RATE_REBALANCE_CONDITIONS_NOT_MET","inputs":[],"outputs":[{"name":"","type":"string","internalType":"string"}],"stateMutability":"view"},{"type":"function","name":"INVALID_ADDRESSES_PROVIDER","inputs":[],"outputs":[{"name":"","type":"string","internalType":"string"}],"stateMutability":"view"},{"type":"function","name":"INVALID_ADDRESSES_PROVIDER_ID","inputs":[],"outputs":[{"name":"","type":"string","internalType":"string"}],"stateMutability":"view"},{"type":"function","name":"INVALID_AMOUNT","inputs":[],"outputs":[{"name":"","type":"string","internalType":"string"}],"stateMutability":"view"},{"type":"function","name":"INVALID_BORROW_CAP","inputs":[],"outputs":[{"name":"","type":"string","internalType":"string"}],"stateMutability":"view"},{"type":"function","name":"INVALID_BURN_AMOUNT","inputs":[],"outputs":[{"name":"","type":"string","internalType":"string"}],"stateMutability":"view"},{"type":"function","name":"INVALID_DEBT_CEILING","inputs":[],"outputs":[{"name":"","type":"string","internalType":"string"}],"stateMutability":"view"},{"type":"function","name":"INVALID_DECIMALS","inputs":[],"outputs":[{"name":"","type":"string","internalType":"string"}],"stateMutability":"view"},{"type":"function","name":"INVALID_EMODE_CATEGORY","inputs":[],"outputs":[{"name":"","type":"string","internalType":"string"}],"stateMutability":"view"},{"type":"function","name":"INVALID_EMODE_CATEGORY_ASSIGNMENT","inputs":[],"outputs":[{"name":"","type":"string","internalType":"string"}],"stateMutability":"view"},{"type":"function","name":"INVALID_EMODE_CATEGORY_PARAMS","inputs":[],"outputs":[{"name":"","type":"string","internalType":"string"}],"stateMutability":"view"},{"type":"function","name":"INVALID_EXPIRATION","inputs":[],"outputs":[{"name":"","type":"string","internalType":"string"}],"stateMutability":"view"},{"type":"function","name":"INVALID_FLASHLOAN_EXECUTOR_RETURN","inputs":[],"outputs":[{"name":"","type":"string","internalType":"string"}],"stateMutability":"view"},{"type":"function","name":"INVALID_INTEREST_RATE_MODE_SELECTED","inputs":[],"outputs":[{"name":"","type":"string","internalType":"string"}],"stateMutability":"view"},{"type":"function","name":"INVALID_LIQUIDATION_PROTOCOL_FEE","inputs":[],"outputs":[{"name":"","type":"string","internalType":"string"}],"stateMutability":"view"},{"type":"function","name":"INVALID_LIQ_BONUS","inputs":[],"outputs":[{"name":"","type":"string","internalType":"string"}],"stateMutability":"view"},{"type":"function","name":"INVALID_LIQ_THRESHOLD","inputs":[],"outputs":[{"name":"","type":"string","internalType":"string"}],"stateMutability":"view"},{"type":"function","name":"INVALID_LTV","inputs":[],"outputs":[{"name":"","type":"string","internalType":"string"}],"stateMutability":"view"},{"type":"function","name":"INVALID_MINT_AMOUNT","inputs":[],"outputs":[{"name":"","type":"string","internalType":"string"}],"stateMutability":"view"},{"type":"function","name":"INVALID_OPTIMAL_STABLE_TO_TOTAL_DEBT_RATIO","inputs":[],"outputs":[{"name":"","type":"string","internalType":"string"}],"stateMutability":"view"},{"type":"function","name":"INVALID_OPTIMAL_USAGE_RATIO","inputs":[],"outputs":[{"name":"","type":"string","internalType":"string"}],"stateMutability":"view"},{"type":"function","name":"INVALID_RESERVE_FACTOR","inputs":[],"outputs":[{"name":"","type":"string","internalType":"string"}],"stateMutability":"view"},{"type":"function","name":"INVALID_RESERVE_INDEX","inputs":[],"outputs":[{"name":"","type":"string","internalType":"string"}],"stateMutability":"view"},{"type":"function","name":"INVALID_RESERVE_PARAMS","inputs":[],"outputs":[{"name":"","type":"string","internalType":"string"}],"stateMutability":"view"},{"type":"function","name":"INVALID_SIGNATURE","inputs":[],"outputs":[{"name":"","type":"string","internalType":"string"}],"stateMutability":"view"},{"type":"function","name":"INVALID_SUPPLY_CAP","inputs":[],"outputs":[{"name":"","type":"string","internalType":"string"}],"stateMutability":"view"},{"type":"function","name":"INVALID_UNBACKED_MINT_CAP","inputs":[],"outputs":[{"name":"","type":"string","internalType":"string"}],"stateMutability":"view"},{"type":"function","name":"LTV_VALIDATION_FAILED","inputs":[],"outputs":[{"name":"","type":"string","internalType":"string"}],"stateMutability":"view"},{"type":"function","name":"NOT_CONTRACT","inputs":[],"outputs":[{"name":"","type":"string","internalType":"string"}],"stateMutability":"view"},{"type":"function","name":"NOT_ENOUGH_AVAILABLE_USER_BALANCE","inputs":[],"outputs":[{"name":"","type":"string","internalType":"string"}],"stateMutability":"view"},{"type":"function","name":"NO_DEBT_OF_SELECTED_TYPE","inputs":[],"outputs":[{"name":"","type":"string","internalType":"string"}],"stateMutability":"view"},{"type":"function","name":"NO_EXPLICIT_AMOUNT_TO_REPAY_ON_BEHALF","inputs":[],"outputs":[{"name":"","type":"string","internalType":"string"}],"stateMutability":"view"},{"type":"function","name":"NO_MORE_RESERVES_ALLOWED","inputs":[],"outputs":[{"name":"","type":"string","internalType":"string"}],"stateMutability":"view"},{"type":"function","name":"NO_OUTSTANDING_STABLE_DEBT","inputs":[],"outputs":[{"name":"","type":"string","internalType":"string"}],"stateMutability":"view"},{"type":"function","name":"NO_OUTSTANDING_VARIABLE_DEBT","inputs":[],"outputs":[{"name":"","type":"string","internalType":"string"}],"stateMutability":"view"},{"type":"function","name":"OPERATION_NOT_SUPPORTED","inputs":[],"outputs":[{"name":"","type":"string","internalType":"string"}],"stateMutability":"view"},{"type":"function","name":"POOL_ADDRESSES_DO_NOT_MATCH","inputs":[],"outputs":[{"name":"","type":"string","internalType":"string"}],"stateMutability":"view"},{"type":"function","name":"PRICE_ORACLE_SENTINEL_CHECK_FAILED","inputs":[],"outputs":[{"name":"","type":"string","internalType":"string"}],"stateMutability":"view"},{"type":"function","name":"RESERVE_ALREADY_ADDED","inputs":[],"outputs":[{"name":"","type":"string","internalType":"string"}],"stateMutability":"view"},{"type":"function","name":"RESERVE_ALREADY_INITIALIZED","inputs":[],"outputs":[{"name":"","type":"string","internalType":"string"}],"stateMutability":"view"},{"type":"function","name":"RESERVE_DEBT_NOT_ZERO","inputs":[],"outputs":[{"name":"","type":"string","internalType":"string"}],"stateMutability":"view"},{"type":"function","name":"RESERVE_FROZEN","inputs":[],"outputs":[{"name":"","type":"string","internalType":"string"}],"stateMutability":"view"},{"type":"function","name":"RESERVE_INACTIVE","inputs":[],"outputs":[{"name":"","type":"string","internalType":"string"}],"stateMutability":"view"},{"type":"function","name":"RESERVE_LIQUIDITY_NOT_ZERO","inputs":[],"outputs":[{"name":"","type":"string","internalType":"string"}],"stateMutability":"view"},{"type":"function","name":"RESERVE_PAUSED","inputs":[],"outputs":[{"name":"","type":"string","internalType":"string"}],"stateMutability":"view"},{"type":"function","name":"SILOED_BORROWING_VIOLATION","inputs":[],"outputs":[{"name":"","type":"string","internalType":"string"}],"stateMutability":"view"},{"type":"function","name":"SPECIFIED_CURRENCY_NOT_BORROWED_BY_USER","inputs":[],"outputs":[{"name":"","type":"string","internalType":"string"}],"stateMutability":"view"},{"type":"function","name":"STABLE_BORROWING_ENABLED","inputs":[],"outputs":[{"name":"","type":"string","internalType":"string"}],"stateMutability":"view"},{"type":"function","name":"STABLE_BORROWING_NOT_ENABLED","inputs":[],"outputs":[{"name":"","type":"string","internalType":"string"}],"stateMutability":"view"},{"type":"function","name":"STABLE_DEBT_NOT_ZERO","inputs":[],"outputs":[{"name":"","type":"string","internalType":"string"}],"stateMutability":"view"},{"type":"function","name":"SUPPLY_CAP_EXCEEDED","inputs":[],"outputs":[{"name":"","type":"string","internalType":"string"}],"stateMutability":"view"},{"type":"function","name":"UNBACKED_MINT_CAP_EXCEEDED","inputs":[],"outputs":[{"name":"","type":"string","internalType":"string"}],"stateMutability":"view"},{"type":"function","name":"UNDERLYING_BALANCE_ZERO","inputs":[],"outputs":[{"name":"","type":"string","internalType":"string"}],"stateMutability":"view"},{"type":"function","name":"UNDERLYING_CANNOT_BE_RESCUED","inputs":[],"outputs":[{"name":"","type":"string","internalType":"string"}],"stateMutability":"view"},{"type":"function","name":"UNDERLYING_CLAIMABLE_RIGHTS_NOT_ZERO","inputs":[],"outputs":[{"name":"","type":"string","internalType":"string"}],"stateMutability":"view"},{"type":"function","name":"USER_IN_ISOLATION_MODE_OR_LTV_ZERO","inputs":[],"outputs":[{"name":"","type":"string","internalType":"string"}],"stateMutability":"view"},{"type":"function","name":"VARIABLE_DEBT_SUPPLY_NOT_ZERO","inputs":[],"outputs":[{"name":"","type":"string","internalType":"string"}],"stateMutability":"view"},{"type":"function","name":"ZERO_ADDRESS_NOT_VALID","inputs":[],"outputs":[{"name":"","type":"string","internalType":"string"}],"stateMutability":"view"}],"bytecode":{"object":"0x61112861003a600b82828239805160001a60731461002d57634e487b7160e01b600052600060045260246000fd5b30600052607381538281f3fe73000000000000000000000000000000000000000030146080604052600436106104f85760003560e01c80638aa3ca4c11610298578063bad8308c11610171578063dd1dd95f116100e3578063f07f67851161009c578063f07f678514610fde578063f10727db14610fff578063f479ea1114611020578063fa163a8314611041578063fae8279114611062578063fd1828ff1461108357600080fd5b8063dd1dd95f14610f19578063de24948c14610f3a578063e02f07ee14610f5b578063e3fa20f514610f7b578063e4dd8b7414610f9c578063e981483a14610fbd57600080fd5b8063d14bb17a11610135578063d14bb17a14610e53578063d1cd8b1d14610e74578063d6f9fcde14610e95578063d9adda8514610eb6578063dc191bd914610ed7578063dcc56db614610ef857600080fd5b8063bad8308c14610dae578063c08a114614610dcf578063c863808214610df0578063c899301a14610e11578063cd23367c14610e3257600080fd5b8063a4868dca1161020a578063b0510054116101ce578063b051005414610ce9578063b4a4573014610d0a578063b5e7936614610d2b578063b68774e914610d4b578063b7f5e22414610d6c578063b87041c214610d8d57600080fd5b8063a4868dca14610c45578063a8c9785314610c66578063ab883ca014610c87578063abd351b114610ca8578063ac75323614610cc957600080fd5b8063952633c51161025c578063952633c514610b7f5780639527e9d914610ba057806399ce53f314610bc1578063a2797c8014610be2578063a2e976c614610c03578063a3402a3814610c2457600080fd5b80638aa3ca4c14610ada5780638b8b98d714610afb5780638eda46bd14610b1c5780638f7722b214610b3d57806394f9fd8a14610b5e57600080fd5b80634e3aed37116103d55780636cd3cfbc116103475780637aa0767e116103005780637aa0767e14610a145780637fea6f3614610a355780638596aad514610a56578063895f7dc814610a7757806389c5d45f14610a985780638a34400014610ab957600080fd5b80636cd3cfbc1461094e578063712f536a1461096f57806373dea5e31461099057806374459b14146109b1578063747fa556146109d257806376ae8fca146109f357600080fd5b80635d9c76c0116103995780635d9c76c01461088957806360c3de80146108aa57806361c111d2146108ca57806365a83bab146108eb57806365e7ef4c1461090c5780636b3f7cc71461092d57600080fd5b80634e3aed37146107e55780634ef999ff146108065780634f77647b14610827578063512674501461084757806352ba9dbe1461086857600080fd5b80632eed17e81161046e57806347ba93d81161043257806347ba93d81461072057806347cf152314610741578063480702ae14610762578063485c8ff6146107835780634d86f393146107a35780634e01e3c1146107c457600080fd5b80632eed17e81461067b578063335763de1461069c578063366eb54d146106bd57806337930782146106de578063471df685146106ff57600080fd5b80631abbb001116104c05780631abbb001146105b757806322a73446146105d857806326bbd053146105f957806326e7b3121461061a5780632926c9711461063a5780632c8e3b4c1461065b57600080fd5b8063084dfa0d146104fd57806311d7b0061461053457806312dcade81461055457806314dcfbbc14610575578063198d6a6b14610596575b600080fd5b61051e60405180604001604052806002815260200161062760f31b81525081565b60405161052b91906110a4565b60405180910390f35b61051e604051806040016040528060018152602001603960f81b81525081565b61051e604051806040016040528060028152602001610c4d60f21b81525081565b61051e604051806040016040528060028152602001611c1b60f11b81525081565b61051e60405180604001604052806002815260200161070760f31b81525081565b61051e60405180604001604052806002815260200161383760f01b81525081565b61051e60405180604001604052806002815260200161343760f01b81525081565b61051e60405180604001604052806002815260200161363960f01b81525081565b61051e604051806040016040528060018152602001603360f81b81525081565b61051e604051806040016040528060028152602001610d0d60f21b81525081565b61051e604051806040016040528060018152602001603560f81b81525081565b61051e60405180604001604052806002815260200161035360f41b81525081565b61051e60405180604001604052806002815260200161032360f41b81525081565b61051e60405180604001604052806002815260200161333560f01b81525081565b61051e60405180604001604052806002815260200161189960f11b81525081565b61051e60405180604001604052806002815260200161323360f01b81525081565b61051e604051806040016040528060028152602001611b9960f11b81525081565b61051e60405180604001604052806002815260200161323160f01b81525081565b61051e604051806040016040528060028152602001611b1960f11b81525081565b61051e604051806040016040528060018152602001601960f91b81525081565b61051e60405180604001604052806002815260200161333160f01b81525081565b61051e604051806040016040528060028152602001610ccd60f21b81525081565b61051e60405180604001604052806002815260200161383360f01b81525081565b61051e60405180604001604052806002815260200161033360f41b81525081565b61051e604051806040016040528060018152602001601b60f91b81525081565b61051e60405180604001604052806002815260200161323560f01b81525081565b61051e60405180604001604052806002815260200161323760f01b81525081565b61051e60405180604001604052806002815260200161313760f01b81525081565b61051e604051806040016040528060018152602001600760fb1b81525081565b61051e60405180604001604052806002815260200161031360f41b81525081565b61051e60405180604001604052806002815260200161353360f01b81525081565b61051e60405180604001604052806002815260200161353560f01b81525081565b61051e604051806040016040528060028152602001611a9960f11b81525081565b61051e60405180604001604052806002815260200161064760f31b81525081565b61051e60405180604001604052806002815260200161034360f41b81525081565b61051e60405180604001604052806002815260200161343960f01b81525081565b61051e60405180604001604052806002815260200161343160f01b81525081565b61051e60405180604001604052806002815260200161313960f01b81525081565b61051e60405180604001604052806002815260200161313560f01b81525081565b61051e60405180604001604052806002815260200161191960f11b81525081565b61051e60405180604001604052806002815260200161313360f01b81525081565b61051e60405180604001604052806002815260200161036360f41b81525081565b61051e604051806040016040528060028152602001611a1b60f11b81525081565b61051e60405180604001604052806002815260200161333360f01b81525081565b61051e60405180604001604052806002815260200161333760f01b81525081565b61051e60405180604001604052806002815260200161393160f01b81525081565b61051e60405180604001604052806002815260200161038360f41b81525081565b61051e60405180604001604052806002815260200161037360f41b81525081565b61051e6040518060400160405280600281526020016106a760f31b81525081565b61051e604051806040016040528060028152602001610d4d60f21b81525081565b61051e60405180604001604052806002815260200161343560f01b81525081565b61051e60405180604001604052806002815260200161363560f01b81525081565b61051e60405180604001604052806002815260200161363360f01b81525081565b61051e60405180604001604052806002815260200161343360f01b81525081565b61051e60405180604001604052806002815260200161313160f01b81525081565b61051e60405180604001604052806002815260200161373960f01b81525081565b61051e60405180604001604052806002815260200161363760f01b81525081565b61051e60405180604001604052806002815260200161373160f01b81525081565b61051e60405180604001604052806002815260200161383560f01b81525081565b61051e604051806040016040528060028152602001610c8d60f21b81525081565b61051e604051806040016040528060018152602001603160f81b81525081565b61051e60405180604001604052806002815260200161353160f01b81525081565b61051e604051806040016040528060028152602001611a1960f11b81525081565b61051e604051806040016040528060018152602001600d60fa1b81525081565b61051e60405180604001604052806002815260200161323960f01b81525081565b61051e60405180604001604052806002815260200161199960f11b81525081565b61051e60405180604001604052806002815260200161353760f01b81525081565b61051e604051806040016040528060028152602001611b9b60f11b81525081565b61051e6040518060400160405280600281526020016106e760f31b81525081565b61051e60405180604001604052806002815260200161353960f01b81525081565b61051e604051806040016040528060028152602001610e0d60f21b81525081565b61051e604051806040016040528060028152602001611c1960f11b81525081565b61051e60405180604001604052806002815260200161373760f01b81525081565b61051e604051806040016040528060028152602001610dcd60f21b81525081565b61051e6040518060400160405280600281526020016106c760f31b81525081565b61051e60405180604001604052806002815260200161363160f01b81525081565b61051e60405180604001604052806002815260200161333960f01b81525081565b61051e60405180604001604052806002815260200161373360f01b81525081565b61051e604051806040016040528060028152602001610d8d60f21b81525081565b61051e60405180604001604052806002815260200161383960f01b81525081565b61051e604051806040016040528060018152602001603760f81b81525081565b61051e60405180604001604052806002815260200161199b60f11b81525081565b61051e60405180604001604052806002815260200161383160f01b81525081565b61051e60405180604001604052806002815260200161039360f41b81525081565b61051e60405180604001604052806002815260200161066760f31b81525081565b61051e604051806040016040528060028152602001611a9b60f11b81525081565b61051e60405180604001604052806002815260200161189b60f11b81525081565b61051e604051806040016040528060028152602001611b1b60f11b81525081565b61051e60405180604001604052806002815260200161191b60f11b81525081565b61051e60405180604001604052806002815260200161373560f01b81525081565b600060208083528351808285015260005b818110156110d1578581018301518582016040015282016110b5565b506000604082860101526040601f19601f830116850101925050509291505056fea26469706673582212204a1a96f6d3423aa24f97037dea05f9d936546899a4c45ce536d58d4fa419120864736f6c63430008150033","linkReferences":{}},"methodIdentifiers":{"ACL_ADMIN_CANNOT_BE_ZERO()":"fd1828ff","ADDRESSES_PROVIDER_ALREADY_ADDED()":"14dcfbbc","ADDRESSES_PROVIDER_NOT_REGISTERED()":"e02f07ee","AMOUNT_BIGGER_THAN_MAX_LOAN_SIZE_STABLE()":"f07f6785","ASSET_NOT_BORROWABLE_IN_ISOLATION()":"8596aad5","ASSET_NOT_LISTED()":"cd23367c","BORROWING_NOT_ENABLED()":"4ef999ff","BORROW_CAP_EXCEEDED()":"2eed17e8","BRIDGE_PROTOCOL_FEE_INVALID()":"7aa0767e","CALLER_MUST_BE_POOL()":"471df685","CALLER_NOT_ASSET_LISTING_OR_POOL_ADMIN()":"2c8e3b4c","CALLER_NOT_ATOKEN()":"a2e976c6","CALLER_NOT_BRIDGE()":"4f77647b","CALLER_NOT_EMERGENCY_ADMIN()":"485c8ff6","CALLER_NOT_POOL_ADMIN()":"ac753236","CALLER_NOT_POOL_CONFIGURATOR()":"61c111d2","CALLER_NOT_POOL_OR_EMERGENCY_ADMIN()":"26e7b312","CALLER_NOT_RISK_OR_POOL_ADMIN()":"b5e79366","COLLATERAL_BALANCE_IS_ZERO()":"4e01e3c1","COLLATERAL_CANNOT_BE_LIQUIDATED()":"895f7dc8","COLLATERAL_CANNOT_COVER_NEW_BORROW()":"e3fa20f5","COLLATERAL_SAME_AS_BORROWING_CURRENCY()":"8a344000","DEBT_CEILING_EXCEEDED()":"65a83bab","DEBT_CEILING_NOT_ZERO()":"e4dd8b74","EMODE_CATEGORY_RESERVED()":"f479ea11","FLASHLOAN_DISABLED()":"8aa3ca4c","FLASHLOAN_PREMIUM_INVALID()":"747fa556","HEALTH_FACTOR_LOWER_THAN_LIQUIDATION_THRESHOLD()":"366eb54d","HEALTH_FACTOR_NOT_BELOW_THRESHOLD()":"952633c5","INCONSISTENT_EMODE_CATEGORY()":"8f7722b2","INCONSISTENT_FLASHLOAN_PARAMS()":"73dea5e3","INCONSISTENT_PARAMS_LENGTH()":"bad8308c","INTEREST_RATE_REBALANCE_CONDITIONS_NOT_MET()":"2926c971","INVALID_ADDRESSES_PROVIDER()":"37930782","INVALID_ADDRESSES_PROVIDER_ID()":"60c3de80","INVALID_AMOUNT()":"fae82791","INVALID_BORROW_CAP()":"d6f9fcde","INVALID_BURN_AMOUNT()":"51267450","INVALID_DEBT_CEILING()":"dcc56db6","INVALID_DECIMALS()":"fa163a83","INVALID_EMODE_CATEGORY()":"a8c97853","INVALID_EMODE_CATEGORY_ASSIGNMENT()":"5d9c76c0","INVALID_EMODE_CATEGORY_PARAMS()":"47cf1523","INVALID_EXPIRATION()":"c08a1146","INVALID_FLASHLOAN_EXECUTOR_RETURN()":"7fea6f36","INVALID_INTEREST_RATE_MODE_SELECTED()":"89c5d45f","INVALID_LIQUIDATION_PROTOCOL_FEE()":"8eda46bd","INVALID_LIQ_BONUS()":"9527e9d9","INVALID_LIQ_THRESHOLD()":"dd1dd95f","INVALID_LTV()":"99ce53f3","INVALID_MINT_AMOUNT()":"abd351b1","INVALID_OPTIMAL_STABLE_TO_TOTAL_DEBT_RATIO()":"c899301a","INVALID_OPTIMAL_USAGE_RATIO()":"4e3aed37","INVALID_RESERVE_FACTOR()":"a4868dca","INVALID_RESERVE_INDEX()":"d1cd8b1d","INVALID_RESERVE_PARAMS()":"335763de","INVALID_SIGNATURE()":"a3402a38","INVALID_SUPPLY_CAP()":"26bbd053","INVALID_UNBACKED_MINT_CAP()":"47ba93d8","LTV_VALIDATION_FAILED()":"b87041c2","NOT_CONTRACT()":"11d7b006","NOT_ENOUGH_AVAILABLE_USER_BALANCE()":"b7f5e224","NO_DEBT_OF_SELECTED_TYPE()":"dc191bd9","NO_EXPLICIT_AMOUNT_TO_REPAY_ON_BEHALF()":"712f536a","NO_MORE_RESERVES_ALLOWED()":"76ae8fca","NO_OUTSTANDING_STABLE_DEBT()":"74459b14","NO_OUTSTANDING_VARIABLE_DEBT()":"b4a45730","OPERATION_NOT_SUPPORTED()":"8b8b98d7","POOL_ADDRESSES_DO_NOT_MATCH()":"1abbb001","PRICE_ORACLE_SENTINEL_CHECK_FAILED()":"c8638082","RESERVE_ALREADY_ADDED()":"12dcade8","RESERVE_ALREADY_INITIALIZED()":"d9adda85","RESERVE_DEBT_NOT_ZERO()":"e981483a","RESERVE_FROZEN()":"6cd3cfbc","RESERVE_INACTIVE()":"52ba9dbe","RESERVE_LIQUIDITY_NOT_ZERO()":"084dfa0d","RESERVE_PAUSED()":"b68774e9","SILOED_BORROWING_VIOLATION()":"de24948c","SPECIFIED_CURRENCY_NOT_BORROWED_BY_USER()":"22a73446","STABLE_BORROWING_ENABLED()":"198d6a6b","STABLE_BORROWING_NOT_ENABLED()":"4d86f393","STABLE_DEBT_NOT_ZERO()":"65e7ef4c","SUPPLY_CAP_EXCEEDED()":"b0510054","UNBACKED_MINT_CAP_EXCEEDED()":"6b3f7cc7","UNDERLYING_BALANCE_ZERO()":"a2797c80","UNDERLYING_CANNOT_BE_RESCUED()":"ab883ca0","UNDERLYING_CLAIMABLE_RIGHTS_NOT_ZERO()":"94f9fd8a","USER_IN_ISOLATION_MODE_OR_LTV_ZERO()":"480702ae","VARIABLE_DEBT_SUPPLY_NOT_ZERO()":"f10727db","ZERO_ADDRESS_NOT_VALID()":"d14bb17a"},"id":8}