{"abi":[{"type":"constructor","inputs":[{"name":"_token","type":"address","internalType":"address"},{"name":"_root","type":"bytes32","internalType":"bytes32"}],"stateMutability":"nonpayable"},{"type":"function","name":"claim","inputs":[{"name":"proof","type":"bytes32[]","internalType":"bytes32[]"},{"name":"to","type":"address","internalType":"address"}],"outputs":[{"name":"","type":"bool","internalType":"bool"}],"stateMutability":"nonpayable"},{"type":"function","name":"claimed","inputs":[{"name":"","type":"bytes32","internalType":"bytes32"}],"outputs":[{"name":"","type":"bool","internalType":"bool"}],"stateMutability":"view"},{"type":"function","name":"root","inputs":[],"outputs":[{"name":"","type":"bytes32","internalType":"bytes32"}],"stateMutability":"view"},{"type":"function","name":"token","inputs":[],"outputs":[{"name":"","type":"address","internalType":"contract PKMToken"}],"stateMutability":"view"},{"type":"event","name":"Claimed","inputs":[{"name":"to","type":"address","indexed":false,"internalType":"address"},{"name":"amount","type":"uint256","indexed":false,"internalType":"uint256"}],"anonymous":false}],"bytecode":{"object":"0x60c060405234801561001057600080fd5b506040516105a73803806105a783398101604081905261002f91610045565b6001600160a01b0390911660805260a05261007f565b6000806040838503121561005857600080fd5b82516001600160a01b038116811461006f57600080fd5b6020939093015192949293505050565b60805160a0516104f76100b06000396000818160a1015261019d01526000818160d6015261022b01526104f76000f3fe608060405234801561001057600080fd5b506004361061004c5760003560e01c806388b4f2d314610051578063cc3c0f0614610079578063ebf0c7171461009c578063fc0c546a146100d1575b600080fd5b61006461005f36600461039b565b610110565b60405190151581526020015b60405180910390f35b61006461008736600461046b565b60006020819052908152604090205460ff1681565b6100c37f000000000000000000000000000000000000000000000000000000000000000081565b604051908152602001610070565b6100f87f000000000000000000000000000000000000000000000000000000000000000081565b6040516001600160a01b039091168152602001610070565b604080516001600160a01b038316602082015260009182910160408051601f19818403018152918152815160209283012060008181529283905291205490915060ff16156101975760405162461bcd60e51b815260206004820152600f60248201526e185b1c9958591e4818db185a5b5959608a1b60448201526064015b60405180910390fd5b6101c2847f0000000000000000000000000000000000000000000000000000000000000000836102d4565b6102055760405162461bcd60e51b815260206004820152601460248201527334b73b30b634b21036b2b935b63290383937b7b360611b604482015260640161018e565b6040516340c10f1960e01b81526001600160a01b038481166004830152600a60248301527f000000000000000000000000000000000000000000000000000000000000000016906340c10f1990604401600060405180830381600087803b15801561026f57600080fd5b505af1158015610283573d6000803e3d6000fd5b5050604080516001600160a01b0387168152600a60208201527fd8138f8a3f377c5259ca548e70e4c2de94f129f5a11036a15b69513cba2b426a935001905060405180910390a15060019392505050565b6000826102e185846102ea565b14949350505050565b600081815b845181101561032f5761031b8286838151811061030e5761030e610484565b6020026020010151610337565b9150806103278161049a565b9150506102ef565b509392505050565b6000818310610353576000828152602084905260409020610362565b60008381526020839052604090205b9392505050565b634e487b7160e01b600052604160045260246000fd5b80356001600160a01b038116811461039657600080fd5b919050565b600080604083850312156103ae57600080fd5b823567ffffffffffffffff808211156103c657600080fd5b818501915085601f8301126103da57600080fd5b81356020828211156103ee576103ee610369565b8160051b604051601f19603f8301168101818110868211171561041357610413610369565b60405292835281830193508481018201928984111561043157600080fd5b948201945b8386101561044f57853585529482019493820193610436565b965061045e905087820161037f565b9450505050509250929050565b60006020828403121561047d57600080fd5b5035919050565b634e487b7160e01b600052603260045260246000fd5b6000600182016104ba57634e487b7160e01b600052601160045260246000fd5b506001019056fea26469706673582212205e74105153d9b666f8d64c46a269dfbef17eb4026b24b2329a267792965642bb64736f6c63430008150033","linkReferences":{}},"methodIdentifiers":{"claim(bytes32[],address)":"88b4f2d3","claimed(bytes32)":"cc3c0f06","root()":"ebf0c717","token()":"fc0c546a"},"id":1}