{"abi":[{"type":"constructor","inputs":[{"name":"initialSupply","type":"uint256","internalType":"uint256"}],"stateMutability":"nonpayable"},{"type":"function","name":"DEFAULT_ADMIN_ROLE","inputs":[],"outputs":[{"name":"","type":"bytes32","internalType":"bytes32"}],"stateMutability":"view"},{"type":"function","name":"MINTER_ROLE","inputs":[],"outputs":[{"name":"","type":"bytes32","internalType":"bytes32"}],"stateMutability":"view"},{"type":"function","name":"allowance","inputs":[{"name":"owner","type":"address","internalType":"address"},{"name":"spender","type":"address","internalType":"address"}],"outputs":[{"name":"","type":"uint256","internalType":"uint256"}],"stateMutability":"view"},{"type":"function","name":"approve","inputs":[{"name":"spender","type":"address","internalType":"address"},{"name":"value","type":"uint256","internalType":"uint256"}],"outputs":[{"name":"","type":"bool","internalType":"bool"}],"stateMutability":"nonpayable"},{"type":"function","name":"balanceOf","inputs":[{"name":"account","type":"address","internalType":"address"}],"outputs":[{"name":"","type":"uint256","internalType":"uint256"}],"stateMutability":"view"},{"type":"function","name":"decimals","inputs":[],"outputs":[{"name":"","type":"uint8","internalType":"uint8"}],"stateMutability":"view"},{"type":"function","name":"getRoleAdmin","inputs":[{"name":"role","type":"bytes32","internalType":"bytes32"}],"outputs":[{"name":"","type":"bytes32","internalType":"bytes32"}],"stateMutability":"view"},{"type":"function","name":"grantMinterRole","inputs":[{"name":"account","type":"address","internalType":"address"}],"outputs":[],"stateMutability":"nonpayable"},{"type":"function","name":"grantRole","inputs":[{"name":"role","type":"bytes32","internalType":"bytes32"},{"name":"account","type":"address","internalType":"address"}],"outputs":[],"stateMutability":"nonpayable"},{"type":"function","name":"hasRole","inputs":[{"name":"role","type":"bytes32","internalType":"bytes32"},{"name":"account","type":"address","internalType":"address"}],"outputs":[{"name":"","type":"bool","internalType":"bool"}],"stateMutability":"view"},{"type":"function","name":"mint","inputs":[{"name":"to","type":"address","internalType":"address"},{"name":"amount","type":"uint256","internalType":"uint256"}],"outputs":[],"stateMutability":"nonpayable"},{"type":"function","name":"name","inputs":[],"outputs":[{"name":"","type":"string","internalType":"string"}],"stateMutability":"view"},{"type":"function","name":"renounceRole","inputs":[{"name":"role","type":"bytes32","internalType":"bytes32"},{"name":"callerConfirmation","type":"address","internalType":"address"}],"outputs":[],"stateMutability":"nonpayable"},{"type":"function","name":"revokeRole","inputs":[{"name":"role","type":"bytes32","internalType":"bytes32"},{"name":"account","type":"address","internalType":"address"}],"outputs":[],"stateMutability":"nonpayable"},{"type":"function","name":"supportsInterface","inputs":[{"name":"interfaceId","type":"bytes4","internalType":"bytes4"}],"outputs":[{"name":"","type":"bool","internalType":"bool"}],"stateMutability":"view"},{"type":"function","name":"symbol","inputs":[],"outputs":[{"name":"","type":"string","internalType":"string"}],"stateMutability":"view"},{"type":"function","name":"totalSupply","inputs":[],"outputs":[{"name":"","type":"uint256","internalType":"uint256"}],"stateMutability":"view"},{"type":"function","name":"transfer","inputs":[{"name":"to","type":"address","internalType":"address"},{"name":"value","type":"uint256","internalType":"uint256"}],"outputs":[{"name":"","type":"bool","internalType":"bool"}],"stateMutability":"nonpayable"},{"type":"function","name":"transferFrom","inputs":[{"name":"from","type":"address","internalType":"address"},{"name":"to","type":"address","internalType":"address"},{"name":"value","type":"uint256","internalType":"uint256"}],"outputs":[{"name":"","type":"bool","internalType":"bool"}],"stateMutability":"nonpayable"},{"type":"event","name":"Approval","inputs":[{"name":"owner","type":"address","indexed":true,"internalType":"address"},{"name":"spender","type":"address","indexed":true,"internalType":"address"},{"name":"value","type":"uint256","indexed":false,"internalType":"uint256"}],"anonymous":false},{"type":"event","name":"RoleAdminChanged","inputs":[{"name":"role","type":"bytes32","indexed":true,"internalType":"bytes32"},{"name":"previousAdminRole","type":"bytes32","indexed":true,"internalType":"bytes32"},{"name":"newAdminRole","type":"bytes32","indexed":true,"internalType":"bytes32"}],"anonymous":false},{"type":"event","name":"RoleGranted","inputs":[{"name":"role","type":"bytes32","indexed":true,"internalType":"bytes32"},{"name":"account","type":"address","indexed":true,"internalType":"address"},{"name":"sender","type":"address","indexed":true,"internalType":"address"}],"anonymous":false},{"type":"event","name":"RoleRevoked","inputs":[{"name":"role","type":"bytes32","indexed":true,"internalType":"bytes32"},{"name":"account","type":"address","indexed":true,"internalType":"address"},{"name":"sender","type":"address","indexed":true,"internalType":"address"}],"anonymous":false},{"type":"event","name":"Transfer","inputs":[{"name":"from","type":"address","indexed":true,"internalType":"address"},{"name":"to","type":"address","indexed":true,"internalType":"address"},{"name":"value","type":"uint256","indexed":false,"internalType":"uint256"}],"anonymous":false},{"type":"error","name":"AccessControlBadConfirmation","inputs":[]},{"type":"error","name":"AccessControlUnauthorizedAccount","inputs":[{"name":"account","type":"address","internalType":"address"},{"name":"neededRole","type":"bytes32","internalType":"bytes32"}]},{"type":"error","name":"ERC20InsufficientAllowance","inputs":[{"name":"spender","type":"address","internalType":"address"},{"name":"allowance","type":"uint256","internalType":"uint256"},{"name":"needed","type":"uint256","internalType":"uint256"}]},{"type":"error","name":"ERC20InsufficientBalance","inputs":[{"name":"sender","type":"address","internalType":"address"},{"name":"balance","type":"uint256","internalType":"uint256"},{"name":"needed","type":"uint256","internalType":"uint256"}]},{"type":"error","name":"ERC20InvalidApprover","inputs":[{"name":"approver","type":"address","internalType":"address"}]},{"type":"error","name":"ERC20InvalidReceiver","inputs":[{"name":"receiver","type":"address","internalType":"address"}]},{"type":"error","name":"ERC20InvalidSender","inputs":[{"name":"sender","type":"address","internalType":"address"}]},{"type":"error","name":"ERC20InvalidSpender","inputs":[{"name":"spender","type":"address","internalType":"address"}]}],"bytecode":{"object":"0x60806040523480156200001157600080fd5b506040516200104a3803806200104a8339810160408190526200003491620002e8565b6040518060400160405280600d81526020016c2837b5b2b6b7b7102a37b5b2b760991b81525060405180604001604052806003815260200162504b4d60e81b8152508160039081620000879190620003a7565b506004620000968282620003a7565b505050620000ab3382620000c060201b60201c565b620000b860003362000102565b505062000495565b6001600160a01b038216620000f05760405163ec442f0560e01b8152600060048201526024015b60405180910390fd5b620000fe60008383620001b5565b5050565b60008281526005602090815260408083206001600160a01b038516845290915281205460ff16620001ab5760008381526005602090815260408083206001600160a01b03861684529091529020805460ff19166001179055620001623390565b6001600160a01b0316826001600160a01b0316847f2f8788117e7eff1d82e926ec794901d17c78024a50270940304540a733656f0d60405160405180910390a4506001620001af565b5060005b92915050565b6001600160a01b038316620001e4578060026000828254620001d8919062000473565b90915550620002589050565b6001600160a01b03831660009081526020819052604090205481811015620002395760405163391434e360e21b81526001600160a01b03851660048201526024810182905260448101839052606401620000e7565b6001600160a01b03841660009081526020819052604090209082900390555b6001600160a01b038216620002765760028054829003905562000295565b6001600160a01b03821660009081526020819052604090208054820190555b816001600160a01b0316836001600160a01b03167fddf252ad1be2c89b69c2b068fc378daa952ba7f163c4a11628f55a4df523b3ef83604051620002db91815260200190565b60405180910390a3505050565b600060208284031215620002fb57600080fd5b5051919050565b634e487b7160e01b600052604160045260246000fd5b600181811c908216806200032d57607f821691505b6020821081036200034e57634e487b7160e01b600052602260045260246000fd5b50919050565b601f821115620003a257600081815260208120601f850160051c810160208610156200037d5750805b601f850160051c820191505b818110156200039e5782815560010162000389565b5050505b505050565b81516001600160401b03811115620003c357620003c362000302565b620003db81620003d4845462000318565b8462000354565b602080601f831160018114620004135760008415620003fa5750858301515b600019600386901b1c1916600185901b1785556200039e565b600085815260208120601f198616915b82811015620004445788860151825594840194600190910190840162000423565b5085821015620004635787850151600019600388901b60f8161c191681555b5050505050600190811b01905550565b80820180821115620001af57634e487b7160e01b600052601160045260246000fd5b610ba580620004a56000396000f3fe608060405234801561001057600080fd5b50600436106101215760003560e01c80633dd1eb61116100ad578063a217fddf11610071578063a217fddf1461025f578063a9059cbb14610267578063d53913931461027a578063d547741f146102a1578063dd62ed3e146102b457600080fd5b80633dd1eb61146101f557806340c10f191461020857806370a082311461021b57806391d148541461024457806395d89b411461025757600080fd5b806323b872dd116100f457806323b872dd14610188578063248a9ca31461019b5780632f2ff15d146101be578063313ce567146101d357806336568abe146101e257600080fd5b806301ffc9a71461012657806306fdde031461014e578063095ea7b31461016357806318160ddd14610176575b600080fd5b610139610134366004610989565b6102ed565b60405190151581526020015b60405180910390f35b610156610324565b60405161014591906109ba565b610139610171366004610a24565b6103b6565b6002545b604051908152602001610145565b610139610196366004610a4e565b6103ce565b61017a6101a9366004610a8a565b60009081526005602052604090206001015490565b6101d16101cc366004610aa3565b6103f2565b005b60405160128152602001610145565b6101d16101f0366004610aa3565b61041d565b6101d1610203366004610acf565b610455565b6101d1610216366004610a24565b610483565b61017a610229366004610acf565b6001600160a01b031660009081526020819052604090205490565b610139610252366004610aa3565b6104b7565b6101566104e2565b61017a600081565b610139610275366004610a24565b6104f1565b61017a7f9f2df0fed2c77648de5860a4cc508cd0818c85b8b8a1ab4ceeef8d981c8956a681565b6101d16102af366004610aa3565b6104ff565b61017a6102c2366004610aea565b6001600160a01b03918216600090815260016020908152604080832093909416825291909152205490565b60006001600160e01b03198216637965db0b60e01b148061031e57506301ffc9a760e01b6001600160e01b03198316145b92915050565b60606003805461033390610b14565b80601f016020809104026020016040519081016040528092919081815260200182805461035f90610b14565b80156103ac5780601f10610381576101008083540402835291602001916103ac565b820191906000526020600020905b81548152906001019060200180831161038f57829003601f168201915b5050505050905090565b6000336103c4818585610524565b5060019392505050565b6000336103dc858285610531565b6103e78585856105ae565b506001949350505050565b60008281526005602052604090206001015461040d8161060d565b610417838361061a565b50505050565b6001600160a01b03811633146104465760405163334bd91960e11b815260040160405180910390fd5b61045082826106ae565b505050565b61047f7f9f2df0fed2c77648de5860a4cc508cd0818c85b8b8a1ab4ceeef8d981c8956a68261061a565b5050565b7f9f2df0fed2c77648de5860a4cc508cd0818c85b8b8a1ab4ceeef8d981c8956a66104ad8161060d565b610450838361071b565b60009182526005602090815260408084206001600160a01b0393909316845291905290205460ff1690565b60606004805461033390610b14565b6000336103c48185856105ae565b60008281526005602052604090206001015461051a8161060d565b61041783836106ae565b6104508383836001610751565b6001600160a01b038381166000908152600160209081526040808320938616835292905220546000198114610417578181101561059f57604051637dc7a0d960e11b81526001600160a01b038416600482015260248101829052604481018390526064015b60405180910390fd5b61041784848484036000610751565b6001600160a01b0383166105d857604051634b637e8f60e11b815260006004820152602401610596565b6001600160a01b0382166106025760405163ec442f0560e01b815260006004820152602401610596565b610450838383610826565b6106178133610950565b50565b600061062683836104b7565b6106a65760008381526005602090815260408083206001600160a01b03861684529091529020805460ff1916600117905561065e3390565b6001600160a01b0316826001600160a01b0316847f2f8788117e7eff1d82e926ec794901d17c78024a50270940304540a733656f0d60405160405180910390a450600161031e565b50600061031e565b60006106ba83836104b7565b156106a65760008381526005602090815260408083206001600160a01b0386168085529252808320805460ff1916905551339286917ff6391f5c32d9c69d2a47ea670b442974b53935d1edc7fd64eb21e047a839171b9190a450600161031e565b6001600160a01b0382166107455760405163ec442f0560e01b815260006004820152602401610596565b61047f60008383610826565b6001600160a01b03841661077b5760405163e602df0560e01b815260006004820152602401610596565b6001600160a01b0383166107a557604051634a1406b160e11b815260006004820152602401610596565b6001600160a01b038085166000908152600160209081526040808320938716835292905220829055801561041757826001600160a01b0316846001600160a01b03167f8c5be1e5ebec7d5bd14f71427d1e84f3dd0314c0f7b2291e5b200ac8c7c3b9258460405161081891815260200190565b60405180910390a350505050565b6001600160a01b0383166108515780600260008282546108469190610b4e565b909155506108c39050565b6001600160a01b038316600090815260208190526040902054818110156108a45760405163391434e360e21b81526001600160a01b03851660048201526024810182905260448101839052606401610596565b6001600160a01b03841660009081526020819052604090209082900390555b6001600160a01b0382166108df576002805482900390556108fe565b6001600160a01b03821660009081526020819052604090208054820190555b816001600160a01b0316836001600160a01b03167fddf252ad1be2c89b69c2b068fc378daa952ba7f163c4a11628f55a4df523b3ef8360405161094391815260200190565b60405180910390a3505050565b61095a82826104b7565b61047f5760405163e2517d3f60e01b81526001600160a01b038216600482015260248101839052604401610596565b60006020828403121561099b57600080fd5b81356001600160e01b0319811681146109b357600080fd5b9392505050565b600060208083528351808285015260005b818110156109e7578581018301518582016040015282016109cb565b506000604082860101526040601f19601f8301168501019250505092915050565b80356001600160a01b0381168114610a1f57600080fd5b919050565b60008060408385031215610a3757600080fd5b610a4083610a08565b946020939093013593505050565b600080600060608486031215610a6357600080fd5b610a6c84610a08565b9250610a7a60208501610a08565b9150604084013590509250925092565b600060208284031215610a9c57600080fd5b5035919050565b60008060408385031215610ab657600080fd5b82359150610ac660208401610a08565b90509250929050565b600060208284031215610ae157600080fd5b6109b382610a08565b60008060408385031215610afd57600080fd5b610b0683610a08565b9150610ac660208401610a08565b600181811c90821680610b2857607f821691505b602082108103610b4857634e487b7160e01b600052602260045260246000fd5b50919050565b8082018082111561031e57634e487b7160e01b600052601160045260246000fdfea2646970667358221220a004127b7e1ab0912e3117587b96ee67fab4a63b8a2c3262a82e59d81b26956b64736f6c63430008150033","linkReferences":{}},"methodIdentifiers":{"DEFAULT_ADMIN_ROLE()":"a217fddf","MINTER_ROLE()":"d5391393","allowance(address,address)":"dd62ed3e","approve(address,uint256)":"095ea7b3","balanceOf(address)":"70a08231","decimals()":"313ce567","getRoleAdmin(bytes32)":"248a9ca3","grantMinterRole(address)":"3dd1eb61","grantRole(bytes32,address)":"2f2ff15d","hasRole(bytes32,address)":"91d14854","mint(address,uint256)":"40c10f19","name()":"06fdde03","renounceRole(bytes32,address)":"36568abe","revokeRole(bytes32,address)":"d547741f","supportsInterface(bytes4)":"01ffc9a7","symbol()":"95d89b41","totalSupply()":"18160ddd","transfer(address,uint256)":"a9059cbb","transferFrom(address,address,uint256)":"23b872dd"},"id":4}