{"abi":[{"type":"function","name":"createGame","inputs":[{"name":"choiceHash","type":"bytes32","internalType":"bytes32"}],"outputs":[],"stateMutability":"payable"},{"type":"function","name":"gameCounter","inputs":[],"outputs":[{"name":"","type":"uint256","internalType":"uint256"}],"stateMutability":"view"},{"type":"function","name":"games","inputs":[{"name":"","type":"uint256","internalType":"uint256"}],"outputs":[{"name":"banker","type":"address","internalType":"address payable"},{"name":"player","type":"address","internalType":"address payable"},{"name":"stake","type":"uint256","internalType":"uint256"},{"name":"bankerChoiceHash","type":"bytes32","internalType":"bytes32"},{"name":"bankerChoice","type":"uint8","internalType":"enum RockPaperScissors.Choice"},{"name":"playerChoice","type":"uint8","internalType":"enum RockPaperScissors.Choice"},{"name":"status","type":"uint8","internalType":"enum RockPaperScissors.GameStatus"},{"name":"winner","type":"address","internalType":"address payable"}],"stateMutability":"view"},{"type":"function","name":"getActiveGames","inputs":[],"outputs":[{"name":"","type":"tuple[]","internalType":"struct RockPaperScissors.Game[]","components":[{"name":"banker","type":"address","internalType":"address payable"},{"name":"player","type":"address","internalType":"address payable"},{"name":"stake","type":"uint256","internalType":"uint256"},{"name":"bankerChoiceHash","type":"bytes32","internalType":"bytes32"},{"name":"bankerChoice","type":"uint8","internalType":"enum RockPaperScissors.Choice"},{"name":"playerChoice","type":"uint8","internalType":"enum RockPaperScissors.Choice"},{"name":"status","type":"uint8","internalType":"enum RockPaperScissors.GameStatus"},{"name":"winner","type":"address","internalType":"address payable"}]}],"stateMutability":"view"},{"type":"function","name":"joinGame","inputs":[{"name":"gameId","type":"uint256","internalType":"uint256"},{"name":"playerChoice","type":"uint8","internalType":"enum RockPaperScissors.Choice"}],"outputs":[],"stateMutability":"payable"},{"type":"function","name":"revealChoice","inputs":[{"name":"gameId","type":"uint256","internalType":"uint256"},{"name":"bankerChoice","type":"uint8","internalType":"enum RockPaperScissors.Choice"},{"name":"secret","type":"string","internalType":"string"}],"outputs":[],"stateMutability":"nonpayable"},{"type":"function","name":"withdrawFunds","inputs":[{"name":"gameId","type":"uint256","internalType":"uint256"}],"outputs":[],"stateMutability":"nonpayable"},{"type":"event","name":"ChoiceRevealed","inputs":[{"name":"gameId","type":"uint256","indexed":false,"internalType":"uint256"},{"name":"banker","type":"address","indexed":false,"internalType":"address"},{"name":"choice","type":"uint8","indexed":false,"internalType":"enum RockPaperScissors.Choice"}],"anonymous":false},{"type":"event","name":"GameCreated","inputs":[{"name":"gameId","type":"uint256","indexed":false,"internalType":"uint256"},{"name":"banker","type":"address","indexed":false,"internalType":"address"},{"name":"stake","type":"uint256","indexed":false,"internalType":"uint256"}],"anonymous":false},{"type":"event","name":"GameFinished","inputs":[{"name":"gameId","type":"uint256","indexed":false,"internalType":"uint256"},{"name":"winner","type":"address","indexed":false,"internalType":"address"},{"name":"amount","type":"uint256","indexed":false,"internalType":"uint256"}],"anonymous":false},{"type":"event","name":"GameJoined","inputs":[{"name":"gameId","type":"uint256","indexed":false,"internalType":"uint256"},{"name":"player","type":"address","indexed":false,"internalType":"address"}],"anonymous":false}],"bytecode":{"object":"0x608060405234801561001057600080fd5b50611191806100206000396000f3fe6080604052600436106100705760003560e01c80632e0be39a1161004e5780632e0be39a1461014d578063457391e514610171578063ca6649c514610184578063d07e55b01461019757600080fd5b8063117a5b9014610075578063155dd5ee146101095780631b76929c1461012b575b600080fd5b34801561008157600080fd5b506100ec610090366004610de2565b600060208190529081526040902080546001820154600283015460038401546004909401546001600160a01b03938416949284169391929160ff8083169261010081048216926201000082049092169163010000009091041688565b604051610100989796959493929190610e3f565b60405180910390f35b34801561011557600080fd5b50610129610124366004610de2565b6101b7565b005b34801561013757600080fd5b506101406102f3565b6040516101009190610eab565b34801561015957600080fd5b5061016360015481565b604051908152602001610100565b61012961017f366004610de2565b61056e565b610129610192366004610f7d565b610788565b3480156101a357600080fd5b506101296101b2366004610fbf565b610966565b60008181526020819052604090206004810154630100000090046001600160a01b031661022b5760405162461bcd60e51b815260206004820152601960248201527f47616d65206973206e6f7420636f6e636c75646564207965740000000000000060448201526064015b60405180910390fd5b6004810154630100000090046001600160a01b0316331461028e5760405162461bcd60e51b815260206004820152601e60248201527f4f6e6c792077696e6e65722063616e2077697468647261772066756e647300006044820152606401610222565b6000816002015460026102a191906110a0565b6000600284018190556004840154604051929350630100000090046001600160a01b0316916108fc84150291849190818181858888f193505050501580156102ed573d6000803e3d6000fd5b50505050565b6060600060015b600154811161034957600081815260208190526040902060040154630100000090046001600160a01b03166103375781610333816110bd565b9250505b80610341816110bd565b9150506102fa565b5060008167ffffffffffffffff81111561036557610365610fa9565b6040519080825280602002602001820160405280156103de57816020015b6103cb60408051610100810182526000808252602082018190529181018290526060810182905290608082019081526020016000815260200160008152600060209091015290565b8152602001906001900390816103835790505b509050600060015b600154811161056557600081815260208190526040902060040154630100000090046001600160a01b0316610553576000818152602081815260409182902082516101008101845281546001600160a01b0390811682526001830154169281019290925260028101549282019290925260038083015460608301526004830154919291608084019160ff9091169081111561048357610483610dfb565b600381111561049457610494610dfb565b81526020016004820160019054906101000a900460ff1660038111156104bc576104bc610dfb565b60038111156104cd576104cd610dfb565b81526020016004820160029054906101000a900460ff1660038111156104f5576104f5610dfb565b600381111561050657610506610dfb565b815260049190910154630100000090046001600160a01b03166020909101528351849084908110610539576105396110d6565b6020026020010181905250818061054f906110bd565b9250505b8061055d816110bd565b9150506103e6565b50909392505050565b600034116105be5760405162461bcd60e51b815260206004820152601f60248201527f5374616b65206d7573742062652067726561746572207468616e207a65726f006044820152606401610222565b600180549060006105ce836110bd565b9190505550604051806101000160405280336001600160a01b0316815260200160006001600160a01b031681526020013481526020018281526020016000600381111561061d5761061d610dfb565b8152602001600081526020016000815260006020918201819052600180548252818352604091829020845181546001600160a01b03199081166001600160a01b03928316178355948601518284018054909616911617909355908301516002830155606083015160038084019190915560808401516004840180549193909260ff199092169184908111156106b4576106b4610dfb565b021790555060a082015160048201805461ff0019166101008360038111156106de576106de610dfb565b021790555060c082015160048201805462ff000019166201000083600381111561070a5761070a610dfb565b021790555060e09190910151600490910180546001600160a01b039092166301000000026301000000600160b81b03199092169190911790556001546040805191825233602083015234908201527f7dfb67e9ff596fca4da65c7eedb128cd1aac553af54b3c0cb733625a2480d8bd9060600160405180910390a150565b600082815260208190526040812090600482015462010000900460ff1660038111156107b6576107b6610dfb565b146107fb5760405162461bcd60e51b815260206004820152601560248201527447616d65206973206e6f7420617661696c61626c6560581b6044820152606401610222565b8060020154341461084e5760405162461bcd60e51b815260206004820152601760248201527f5374616b6520616d6f756e74206d757374206d617463680000000000000000006044820152606401610222565b600182600381111561086257610862610dfb565b148061087f5750600282600381111561087d5761087d610dfb565b145b8061089b5750600382600381111561089957610899610dfb565b145b6108d85760405162461bcd60e51b815260206004820152600e60248201526d496e76616c69642063686f69636560901b6044820152606401610222565b6001810180546001600160a01b0319163317905560048101805483919061ff00191661010083600381111561090f5761090f610dfb565b02179055506004810180546201000062ff000019909116179055604080518481523360208201527f45c4f9cbafe186141862608c493f28b823fde4c2142bedc3f5169961a73fdd22910160405180910390a1505050565b60008381526020819052604090205483906001600160a01b031633146109ce5760405162461bcd60e51b815260206004820152601960248201527f4f6e6c792062616e6b65722063616e2063616c6c2074686973000000000000006044820152606401610222565b60008481526020819052604090206001600482015462010000900460ff1660038111156109fd576109fd610dfb565b14610a4a5760405162461bcd60e51b815260206004820152601c60248201527f47616d65206973206e6f7420726561647920666f722072657665616c000000006044820152606401610222565b8060030154846003811115610a6157610a61610dfb565b84604051602001610a739291906110ec565b6040516020818303038152906040528051906020012014610ac75760405162461bcd60e51b815260206004820152600e60248201526d125b9d985b1a59081c995d99585b60921b6044820152606401610222565b60048101805485919060ff19166001836003811115610ae857610ae8610dfb565b021790555060048101805462ff00001916620200001790556040517f67a65ec25115523b341c85ef61950da78cd3dea21f0b9d94d952b0f7d537c05e90610b349087903390889061112e565b60405180910390a1610b4585610b4c565b5050505050565b60008181526020819052604090206002600482015462010000900460ff166003811115610b7b57610b7b610dfb565b14610bc85760405162461bcd60e51b815260206004820152601b60248201527f47616d65206973206e6f7420726561647920746f2066696e69736800000000006044820152606401610222565b6004810154600090610100900460ff166003811115610be957610be9610dfb565b600483015460ff166003811115610c0257610c02610dfb565b03610c8b57815460028301546040516001600160a01b039092169181156108fc0291906000818181858888f19350505050158015610c44573d6000803e3d6000fd5b50600182015460028301546040516001600160a01b039092169181156108fc0291906000818181858888f19350505050158015610c85573d6000803e3d6000fd5b50610dcc565b6001600483015460ff166003811115610ca657610ca6610dfb565b148015610cd0575060036004830154610100900460ff166003811115610cce57610cce610dfb565b145b80610d1b57506003600483015460ff166003811115610cf157610cf1610dfb565b148015610d1b575060026004830154610100900460ff166003811115610d1957610d19610dfb565b145b80610d6657506002600483015460ff166003811115610d3c57610d3c610dfb565b148015610d66575060016004830154610100900460ff166003811115610d6457610d64610dfb565b145b15610d9c5781546004830180546301000000600160b81b0319166001600160a01b03909216630100000002919091179055610dcc565b60018201546004830180546301000000600160b81b0319166001600160a01b039092166301000000029190911790555b50600401805462ff000019166203000017905550565b600060208284031215610df457600080fd5b5035919050565b634e487b7160e01b600052602160045260246000fd5b60048110610e2f57634e487b7160e01b600052602160045260246000fd5b50565b610e3b81610e11565b9052565b6001600160a01b03898116825288811660208301526040820188905260608201879052610100820190610e7187610e11565b866080840152610e8086610e11565b8560a0840152610e8f85610e11565b8460c084015280841660e0840152509998505050505050505050565b602080825282518282018190526000919060409081850190868401855b82811015610f5c57815180516001600160a01b039081168652878201511687860152858101518686015260608082015190860152608080820151610f0b81610e11565b9086015260a081810151610f1e81610e11565b9086015260c081810151610f3482880182610e32565b505060e0908101516001600160a01b0316908501526101009093019290850190600101610ec8565b5091979650505050505050565b803560048110610f7857600080fd5b919050565b60008060408385031215610f9057600080fd5b82359150610fa060208401610f69565b90509250929050565b634e487b7160e01b600052604160045260246000fd5b600080600060608486031215610fd457600080fd5b83359250610fe460208501610f69565b9150604084013567ffffffffffffffff8082111561100157600080fd5b818601915086601f83011261101557600080fd5b81358181111561102757611027610fa9565b604051601f8201601f19908116603f0116810190838211818310171561104f5761104f610fa9565b8160405282815289602084870101111561106857600080fd5b8260208601602083013760006020848301015280955050505050509250925092565b634e487b7160e01b600052601160045260246000fd5b80820281158282048414176110b7576110b761108a565b92915050565b6000600182016110cf576110cf61108a565b5060010190565b634e487b7160e01b600052603260045260246000fd5b60ff60f81b8360f81b1681526000825160005b8181101561111c57602081860181015160018684010152016110ff565b50600092016001019182525092915050565b8381526001600160a01b03831660208201526060810161114d83610e11565b82604083015294935050505056fea2646970667358221220ec73319e0541fcd74d70ceaf588965d7d2bbc8f3e4dfc6d05443f6505c01760264736f6c63430008150033","linkReferences":{}},"methodIdentifiers":{"createGame(bytes32)":"457391e5","gameCounter()":"2e0be39a","games(uint256)":"117a5b90","getActiveGames()":"1b76929c","joinGame(uint256,uint8)":"ca6649c5","revealChoice(uint256,uint8,string)":"d07e55b0","withdrawFunds(uint256)":"155dd5ee"},"id":6}