{"abi":[{"type":"constructor","inputs":[{"name":"ltv","type":"uint256","internalType":"uint256"},{"name":"liquidationThreshold","type":"uint256","internalType":"uint256"},{"name":"decimals","type":"uint8","internalType":"uint8"}],"stateMutability":"nonpayable"},{"type":"function","name":"getReserveData","inputs":[],"outputs":[{"name":"","type":"tuple","internalType":"struct DataTypes.ReserveData","components":[{"name":"configuration","type":"tuple","internalType":"struct DataTypes.ReserveConfigurationMap","components":[{"name":"data","type":"uint256","internalType":"uint256"}]},{"name":"liquidityIndex","type":"uint128","internalType":"uint128"},{"name":"currentLiquidityRate","type":"uint128","internalType":"uint128"},{"name":"variableBorrowIndex","type":"uint128","internalType":"uint128"},{"name":"currentVariableBorrowRate","type":"uint128","internalType":"uint128"},{"name":"currentStableBorrowRate","type":"uint128","internalType":"uint128"},{"name":"lastUpdateTimestamp","type":"uint40","internalType":"uint40"},{"name":"aTokenAddress","type":"address","internalType":"address"},{"name":"stableDebtTokenAddress","type":"address","internalType":"address"},{"name":"variableDebtTokenAddress","type":"address","internalType":"address"},{"name":"id","type":"uint8","internalType":"uint8"}]}],"stateMutability":"view"},{"type":"function","name":"reserveData","inputs":[],"outputs":[{"name":"configuration","type":"tuple","internalType":"struct DataTypes.ReserveConfigurationMap","components":[{"name":"data","type":"uint256","internalType":"uint256"}]},{"name":"liquidityIndex","type":"uint128","internalType":"uint128"},{"name":"currentLiquidityRate","type":"uint128","internalType":"uint128"},{"name":"variableBorrowIndex","type":"uint128","internalType":"uint128"},{"name":"currentVariableBorrowRate","type":"uint128","internalType":"uint128"},{"name":"currentStableBorrowRate","type":"uint128","internalType":"uint128"},{"name":"lastUpdateTimestamp","type":"uint40","internalType":"uint40"},{"name":"aTokenAddress","type":"address","internalType":"address"},{"name":"stableDebtTokenAddress","type":"address","internalType":"address"},{"name":"variableDebtTokenAddress","type":"address","internalType":"address"},{"name":"id","type":"uint8","internalType":"uint8"}],"stateMutability":"view"}],"bytecode":{"object":"0x608060405234801561001057600080fd5b506040516105a23803806105a283398101604081905261002f9161017e565b6000808055604080516020810190915290815261004c908461008b565b6040805160208101909152600054815261006690836100dd565b604080516020810190915260005481526100839060ff831661012e565b50505061020b565b604080518082019091526002815261363760f01b602082015261ffff8211156100d05760405162461bcd60e51b81526004016100c791906101bd565b60405180910390fd5b50815161ffff1916179052565b60408051808201909152600281526106c760f31b602082015261ffff8211156101195760405162461bcd60e51b81526004016100c791906101bd565b50815163ffff0000191660109190911b179052565b604080518082019091526002815261037360f41b602082015260ff8211156101695760405162461bcd60e51b81526004016100c791906101bd565b50815160ff60301b191660309190911b179052565b60008060006060848603121561019357600080fd5b8351925060208401519150604084015160ff811681146101b257600080fd5b809150509250925092565b600060208083528351808285015260005b818110156101ea578581018301518582016040015282016101ce565b506000604082860101526040601f19601f8301168501019250505092915050565b6103888061021a6000396000f3fe608060405234801561001057600080fd5b50600436106100365760003560e01c806305bef05e1461003b578063289cc9c81461015e575b600080fd5b610148604080516101808101825260006101608201818152825260208201819052918101829052606081018290526080810182905260a0810182905260c0810182905260e0810182905261010081018290526101208101829052610140810191909152506040805161018081018252600054610160820190815281526001546001600160801b038082166020840152600160801b9182900481169383019390935260025480841660608401528190048316608083015260035492831660a083015290910464ffffffffff1660c08201526004546001600160a01b0390811660e08301526005548116610100830152600654908116610120830152600160a01b900460ff1661014082015290565b6040516101559190610251565b60405180910390f35b604080516020810190915260005481526001546002546003546004546005546006546101d696956001600160801b0380821696600160801b9283900482169682821696918490048316959281169493900464ffffffffff16926001600160a01b0391821692821691811690600160a01b900460ff168b565b604080519b518c526001600160801b039a8b1660208d0152988a16988b019890985295881660608a015293871660808901529590911660a087015264ffffffffff1660c08601526001600160a01b0393841660e086015283166101008501529190911661012083015260ff1661014082015261016001610155565b81515181526101608101602083015161027560208401826001600160801b03169052565b50604083015161029060408401826001600160801b03169052565b5060608301516102ab60608401826001600160801b03169052565b5060808301516102c660808401826001600160801b03169052565b5060a08301516102e160a08401826001600160801b03169052565b5060c08301516102fa60c084018264ffffffffff169052565b5060e083015161031560e08401826001600160a01b03169052565b50610100838101516001600160a01b039081169184019190915261012080850151909116908301526101409283015160ff1692909101919091529056fea2646970667358221220c4a78a8640202dbe0077d57dbd764d136e122b2df16780416969f57748454e8b64736f6c63430008150033","linkReferences":{}},"methodIdentifiers":{"getReserveData()":"05bef05e","reserveData()":"289cc9c8"},"id":46}