{"abi":[{"type":"constructor","inputs":[{"name":"_token","type":"address","internalType":"address"},{"name":"_nftContract","type":"address","internalType":"address"}],"stateMutability":"nonpayable"},{"type":"function","name":"buyNFT","inputs":[{"name":"tokenId","type":"uint256","internalType":"uint256"}],"outputs":[],"stateMutability":"nonpayable"},{"type":"function","name":"list","inputs":[{"name":"tokenId","type":"uint256","internalType":"uint256"},{"name":"price","type":"uint256","internalType":"uint256"}],"outputs":[],"stateMutability":"nonpayable"},{"type":"function","name":"listWithSignature","inputs":[{"name":"tokenId","type":"uint256","internalType":"uint256"},{"name":"price","type":"uint256","internalType":"uint256"},{"name":"v","type":"uint8","internalType":"uint8"},{"name":"r","type":"bytes32","internalType":"bytes32"},{"name":"s","type":"bytes32","internalType":"bytes32"}],"outputs":[],"stateMutability":"nonpayable"},{"type":"function","name":"listed","inputs":[{"name":"","type":"uint256","internalType":"uint256"}],"outputs":[{"name":"","type":"bool","internalType":"bool"}],"stateMutability":"view"},{"type":"function","name":"listings","inputs":[{"name":"","type":"uint256","internalType":"uint256"}],"outputs":[{"name":"seller","type":"address","internalType":"address"},{"name":"price","type":"uint256","internalType":"uint256"}],"stateMutability":"view"},{"type":"function","name":"nftContract","inputs":[],"outputs":[{"name":"","type":"address","internalType":"contract IERC721"}],"stateMutability":"view"},{"type":"function","name":"owner","inputs":[],"outputs":[{"name":"","type":"address","internalType":"address"}],"stateMutability":"view"},{"type":"function","name":"renounceOwnership","inputs":[],"outputs":[],"stateMutability":"nonpayable"},{"type":"function","name":"token","inputs":[],"outputs":[{"name":"","type":"address","internalType":"contract IERC20"}],"stateMutability":"view"},{"type":"function","name":"transferOwnership","inputs":[{"name":"newOwner","type":"address","internalType":"address"}],"outputs":[],"stateMutability":"nonpayable"},{"type":"function","name":"withdrawTokens","inputs":[{"name":"_tokenAddress","type":"address","internalType":"address"}],"outputs":[],"stateMutability":"nonpayable"},{"type":"event","name":"NFTBought","inputs":[{"name":"tokenId","type":"uint256","indexed":true,"internalType":"uint256"},{"name":"buyer","type":"address","indexed":true,"internalType":"address"},{"name":"seller","type":"address","indexed":true,"internalType":"address"},{"name":"price","type":"uint256","indexed":false,"internalType":"uint256"}],"anonymous":false},{"type":"event","name":"NFTListed","inputs":[{"name":"tokenId","type":"uint256","indexed":true,"internalType":"uint256"},{"name":"seller","type":"address","indexed":true,"internalType":"address"},{"name":"price","type":"uint256","indexed":false,"internalType":"uint256"}],"anonymous":false},{"type":"event","name":"OwnershipTransferred","inputs":[{"name":"previousOwner","type":"address","indexed":true,"internalType":"address"},{"name":"newOwner","type":"address","indexed":true,"internalType":"address"}],"anonymous":false},{"type":"error","name":"OwnableInvalidOwner","inputs":[{"name":"owner","type":"address","internalType":"address"}]},{"type":"error","name":"OwnableUnauthorizedAccount","inputs":[{"name":"account","type":"address","internalType":"address"}]}],"bytecode":{"object":"0x608060405234801561001057600080fd5b50604051610cde380380610cde83398101604081905261002f916100fc565b338061005557604051631e4fbdf760e01b81526000600482015260240160405180910390fd5b61005e81610090565b50600180546001600160a01b039384166001600160a01b0319918216179091556002805492909316911617905561012f565b600080546001600160a01b038381166001600160a01b0319831681178455604051919092169283917f8be0079c531659141344cd1fd0a4f28419497f9722a3daafe3b4186f6b6457e09190a35050565b80516001600160a01b03811681146100f757600080fd5b919050565b6000806040838503121561010f57600080fd5b610118836100e0565b9150610126602084016100e0565b90509250929050565b610ba08061013e6000396000f3fe608060405234801561001057600080fd5b50600436106100a95760003560e01c8063715018a611610071578063715018a6146101345780638da5cb5b1461013c578063d56d229d14610161578063de74e57b14610174578063f2fde38b146101c6578063fc0c546a146101d957600080fd5b8063021aa5bb146100ae57806304c31251146100c357806349df728c146100fb57806350fd73671461010e57806351ed828814610121575b600080fd5b6100c16100bc366004610a2b565b6101ec565b005b6100e66100d1366004610a7a565b60046020526000908152604090205460ff1681565b60405190151581526020015b60405180910390f35b6100c1610109366004610aa8565b610412565b6100c161011c366004610acc565b610569565b6100c161012f366004610a7a565b610762565b6100c161095c565b6000546001600160a01b03165b6040516001600160a01b0390911681526020016100f2565b600254610149906001600160a01b031681565b6101a7610182366004610a7a565b600360205260009081526040902080546001909101546001600160a01b039091169082565b604080516001600160a01b0390931683526020830191909152016100f2565b6100c16101d4366004610aa8565b610970565b600154610149906001600160a01b031681565b600084116102415760405162461bcd60e51b815260206004820152601c60248201527f5072696365206d7573742062652067726561746572207468616e20300000000060448201526064015b60405180910390fd5b600060018686604051602001610261929190918252602082015260400190565b60408051601f198184030181528282528051602091820120600084529083018083525260ff871690820152606081018590526080810184905260a0016020604051602081039080840390855afa1580156102bf573d6000803e3d6000fd5b5050604051601f1901519150506001600160a01b03811633146103185760405162461bcd60e51b8152602060048201526011602482015270496e76616c6964207369676e617475726560781b6044820152606401610238565b6002546040516323b872dd60e01b81526001600160a01b03909116906323b872dd9061034c90339030908b90600401610aee565b600060405180830381600087803b15801561036657600080fd5b505af115801561037a573d6000803e3d6000fd5b50506040805180820182523380825260208083018b815260008d815260038352858120945185546001600160a01b0319166001600160a01b03909116178555905160019485015560048252849020805460ff191690931790925591518981529193508992507f5f9c03de076f5063cd3ebcfe8ef7aa8af378e4b35a83c77ba9777e97083879a2910160405180910390a3505050505050565b61041a6109ae565b6040516370a0823160e01b815230600482015281906000906001600160a01b038316906370a0823190602401602060405180830381865afa158015610463573d6000803e3d6000fd5b505050506040513d601f19601f820116820180604052508101906104879190610b12565b9050600081116104d15760405162461bcd60e51b81526020600482015260156024820152744e6f20746f6b656e7320746f20776974686472617760581b6044820152606401610238565b816001600160a01b031663a9059cbb6104f26000546001600160a01b031690565b6040516001600160e01b031960e084901b1681526001600160a01b039091166004820152602481018490526044016020604051808303816000875af115801561053f573d6000803e3d6000fd5b505050506040513d601f19601f820116820180604052508101906105639190610b2b565b50505050565b6002546040516331a9108f60e11b81526004810184905233916001600160a01b031690636352211e90602401602060405180830381865afa1580156105b2573d6000803e3d6000fd5b505050506040513d601f19601f820116820180604052508101906105d69190610b4d565b6001600160a01b03161461061c5760405162461bcd60e51b815260206004820152600d60248201526c2737ba103a34329037bbb732b960991b6044820152606401610238565b6000811161066c5760405162461bcd60e51b815260206004820152601c60248201527f5072696365206d7573742062652067726561746572207468616e2030000000006044820152606401610238565b6002546040516323b872dd60e01b81526001600160a01b03909116906323b872dd906106a090339030908790600401610aee565b600060405180830381600087803b1580156106ba57600080fd5b505af11580156106ce573d6000803e3d6000fd5b5050604080518082018252338082526020808301878152600089815260038352858120945185546001600160a01b0319166001600160a01b03909116178555905160019485015560048252849020805460ff191690931790925591518581529193508592507f5f9c03de076f5063cd3ebcfe8ef7aa8af378e4b35a83c77ba9777e97083879a2910160405180910390a35050565b60008181526004602052604090205460ff166107b15760405162461bcd60e51b815260206004820152600e60248201526d139195081b9bdd081b1a5cdd195960921b6044820152606401610238565b6000818152600360209081526040918290208251808401845281546001600160a01b03908116808352600193840154948301859052925494516323b872dd60e01b8152919416926323b872dd9261080d92339290600401610aee565b6020604051808303816000875af115801561082c573d6000803e3d6000fd5b505050506040513d601f19601f820116820180604052508101906108509190610b2b565b6108945760405162461bcd60e51b8152602060048201526015602482015274151bdad95b881d1c985b9cd9995c8819985a5b1959605a1b6044820152606401610238565b6002546040516323b872dd60e01b81526001600160a01b03909116906323b872dd906108c890309033908790600401610aee565b600060405180830381600087803b1580156108e257600080fd5b505af11580156108f6573d6000803e3d6000fd5b505050600083815260046020908152604091829020805460ff1916905583518482015192519283526001600160a01b03169250339185917fc55254892a1711b67c27fcc61c33145acd745d88047198774c9f479bd2fab72e910160405180910390a45050565b6109646109ae565b61096e60006109db565b565b6109786109ae565b6001600160a01b0381166109a257604051631e4fbdf760e01b815260006004820152602401610238565b6109ab816109db565b50565b6000546001600160a01b0316331461096e5760405163118cdaa760e01b8152336004820152602401610238565b600080546001600160a01b038381166001600160a01b0319831681178455604051919092169283917f8be0079c531659141344cd1fd0a4f28419497f9722a3daafe3b4186f6b6457e09190a35050565b600080600080600060a08688031215610a4357600080fd5b8535945060208601359350604086013560ff81168114610a6257600080fd5b94979396509394606081013594506080013592915050565b600060208284031215610a8c57600080fd5b5035919050565b6001600160a01b03811681146109ab57600080fd5b600060208284031215610aba57600080fd5b8135610ac581610a93565b9392505050565b60008060408385031215610adf57600080fd5b50508035926020909101359150565b6001600160a01b039384168152919092166020820152604081019190915260600190565b600060208284031215610b2457600080fd5b5051919050565b600060208284031215610b3d57600080fd5b81518015158114610ac557600080fd5b600060208284031215610b5f57600080fd5b8151610ac581610a9356fea26469706673582212207b940f1905b1a2dfab115bc50d3bb9cd039758105cc295b7a7e27386bd12e6f464736f6c63430008150033","linkReferences":{}},"methodIdentifiers":{"buyNFT(uint256)":"51ed8288","list(uint256,uint256)":"50fd7367","listWithSignature(uint256,uint256,uint8,bytes32,bytes32)":"021aa5bb","listed(uint256)":"04c31251","listings(uint256)":"de74e57b","nftContract()":"d56d229d","owner()":"8da5cb5b","renounceOwnership()":"715018a6","token()":"fc0c546a","transferOwnership(address)":"f2fde38b","withdrawTokens(address)":"49df728c"},"id":3}